:020000040800F2
:10000000000002209D240008C91B0008D11B000825
:10001000D91B0008E11B0008E91B000800000000D4
:10002000000000000000000000000000F11B0008BC
:10003000FF1B0008000000000D1C00081B1C00082E
:10004000F1240008F1240008F1240008F12400083C
:10005000F1240008F1240008F1240008F12400082C
:10006000F1240008F1240008F1240008F12400081C
:10007000F1240008F1240008F1240008F12400080C
:10008000F1240008F1240008F1240008F1240008FC
:10009000F1240008F1240008F1240008F1240008EC
:1000A000F1240008F1240008F1240008F1240008DC
:1000B000F1240008F1240008F1240008F1240008CC
:1000C000F1240008F1240008F1240008F1240008BC
:1000D000F1240008F1240008F1240008F1240008AC
:1000E000F1240008F124000800000000F1240008B9
:1000F000F1240008F1240008F1240008F12400088C
:10010000F1240008F1240008F1240008F12400087B
:10011000F1240008F1240008F1240008F12400086B
:10012000F1240008F1240008F1240008F12400085B
:10013000F1240008F1240008F1240008F12400084B
:1001400000000000000000000000000000000000AF
:10015000F1240008F1240008F1240008F12400082B
:10016000F1240008F1240008F1240008F12400081B
:10017000F1240008F1240008F12400080000000028
:10018000F1240008F1240008F1240008F1240008FB
:10019000F1240008F1240008F1240008F1240008EB
:1001A000291C0008F1240008F1240008F1240008AB
:1001B000F1240008F1240008F1240008F1240008CB
:1001C000F1240008F1240008F1240008F1240008BB
:1001D000F1240008F1240008F1240008F1240008AB
:1001E000F1240008F1240008F1240008F12400089B
:1001F000F1240008F1240008F1240008F12400088B
:10020000F1240008F1240008F1240008F12400087A
:10021000F1240008F12400083D1C0008F124000826
:10022000F1240008F1240008F12400080000000077
:10023000F1240008F124000800000000F124000867
:10024000F1240008F1240008F1240008F12400083A
:10025000F1240008F1240008F1240008F12400082A
:10026000F1240008F1240008F1240008F12400081A
:10027000F1240008F1240008F12400080000000027
:10028000F1240008F1240008F12400080000000017
:0802900000000000F124000849
:1002A00010B5054C237833B9044B13B10448AFF3B0
:1002B00000800123237010BD040100200000000015
:1002C0003C55030808B5034B1BB103490348AFF382
:1002D000008008BD00000000080100203C55030814
:1002E00010F8012B11F8013B012A28BF9A42F7D0E0
:1002F000D01A7047034613F8012B002AFBD1181AB5
:1003000001387047000000000000000000000000FD
:1003100001F0FF01102A2BDB10F0070F08D010F8B6
:10032000013B013A8B422DD010F0070F42B3F6D1BA
:10033000F0B441EA012141EA014122F007047FF0D3
:1003400000070023F0E80256083C85EA010586EA2A
:10035000010685FA47F5A3FA87F586FA47F6A5FA66
:1003600087F68EB9EED1F0BC01F0FF0102F0070272
:1003700032B110F8013B013A83EA010313B1F8D11D
:100380000020704701387047002D06BF35460338FE
:10039000073815F0010F07D1013015F4807F02BF37
:1003A000013015F4C03F0130F0BC0138704700BF88
:1003B00081F0004102E000BF83F0004330B54FEA16
:1003C00041044FEA430594EA050F08BF90EA020F83
:1003D0001FBF54EA000C55EA020C7FEA645C7FEA16
:1003E000655C00F0E2804FEA5454D4EB5555B8BF39
:1003F0006D420CDD2C4480EA020281EA030382EAAA
:10040000000083EA010180EA020281EA0303362D3B
:1004100088BF30BD11F0004F4FEA01314FF4801C0E
:100420004CEA113102D0404261EB410113F0004F20
:100430004FEA03334CEA133302D0524263EB4303D7
:1004400094EA050F00F0A780A4F10104D5F1200E75
:100450000DDB02FA0EFC22FA05F2801841F10001D0
:1004600003FA0EF2801843FA05F359410EE0A5F1A4
:1004700020050EF1200E012A03FA0EFC28BF4CF0D5
:10048000020C43FA05F3C01851EBE37101F000458B
:1004900007D54FF0000EDCF1000C7EEB00006EEB98
:1004A0000101B1F5801F1BD3B1F5001F0CD3490822
:1004B0005FEA30004FEA3C0C04F101044FEA445279
:1004C00012F5800F80F09A80BCF1004F08BF5FEA00
:1004D000500C50F1000041EB045141EA050130BDE0
:1004E0005FEA4C0C404141EB0101013C28BFB1F5F2
:1004F000801FE9D291F0000F04BF01460020B1FA3D
:1005000081F308BF2033A3F10B03B3F120020CDA0F
:100510000C3208DD02F1140CC2F10C0201FA0CF0ED
:1005200021FA02F10CE002F11402D8BFC2F1200C52
:1005300001FA02F120FA0CFCDCBF41EA0C01904008
:10054000E41AA2BF01EB0451294330BD6FEA040451
:100550001F3C1CDA0C340EDC04F11404C4F120023C
:1005600020FA04F001FA02F340EA030021FA04F34E
:1005700045EA030130BDC4F10C04C4F1200220FAA5
:1005800002F001FA04F340EA0300294630BD21FAE3
:1005900004F0294630BD94F0000F83F4801306BFA9
:1005A00081F480110134013D4EE77FEA645C18BF9D
:1005B0007FEA655C29D094EA050F08BF90EA020F34
:1005C00005D054EA000C04BF1946104630BD91EA2C
:1005D000030F1EBF0021002030BD5FEA545C05D12F
:1005E0004000494128BF41F0004130BD14F580046E
:1005F0003CBF01F5801130BD01F0004545F0FE41E2
:1006000041F470014FF0000030BD7FEA645C1ABF16
:10061000194610467FEA655C1CBF0B46024650EA4D
:10062000013406BF52EA033591EA030F41F4002179
:1006300030BD00BF90F0000F04BF0021704730B5FF
:100640004FF4806404F132044FF000054FF00001D4
:1006500050E700BF90F0000F04BF0021704730B595
:100660004FF4806404F1320410F0004548BF40426A
:100670004FF000013EE700BF42004FEAE2014FEABF
:1006800031014FEA02701FBF12F07F4393F07F4F9A
:1006900081F06051704732F07F4208BF704793F09D
:1006A0007F4F04BF41F40021704730B54FF46074B0
:1006B00001F0004521F000411CE700BF50EA0102B3
:1006C00008BF704730B54FF000050AE050EA01025C
:1006D00008BF704730B511F0004502D5404261EBCC
:1006E00041014FF4806404F132045FEA915C3FF40D
:1006F000D8AE4FF003025FEADC0C18BF03325FEAAA
:10070000DC0C18BF033202EBDC02C2F1200300FA5A
:1007100003FC20FA02F001FA03FE40EA0E0021FA7F
:1007200002F11444BDE600BF53B94AB9002908BF1D
:1007300000281CBF4FF0FF314FF0FF3000F088B9A8
:10074000ADF1080C6DE904CE00F006F8DDF804E028
:10075000DDE9022304B070472DE9F047089D0F46FC
:1007600004468C46002B48D18A42164661D9B2FA1B
:1007700082F34BB1C3F1200201FA03FC20FA02F22A
:100780009E4042EA0C0C9C404FEA164EB7B2BCFBAE
:10079000FEF1220C0EFB11CC42EA0C4201FB07F0E9
:1007A000904209D9B21801F1FF3C80F0EE809042EE
:1007B00040F2EB8002393244121AA4B2B2FBFEF0CE
:1007C0000EFB102244EA024400FB07F7A74209D9B6
:1007D000341900F1FF3280F0DA80A74240F2D7806E
:1007E0003444023840EA0140E41B00211DB1DC40E2
:1007F0000023C5E90043BDE8F0878B4206D90DB15F
:10080000C5E9000100210846BDE8F087B3FA83F18D
:10081000002948D1BB4202D3824200F20781841AE8
:1008200067EB030201209446002DE4D0C5E9004C9B
:10083000E1E7002A00F09280B2FA82F3002B40F048
:10084000A8808A1A4FEA164E1FFA86FC0121200C56
:10085000B2FBFEF70EFB172240EA02420CFB07F048
:10086000904207D9B21807F1FF3802D2904200F245
:10087000E2804746121AA4B2B2FBFEF00EFB102231
:1008800044EA02440CFB00FCA44507D9341900F1EA
:10089000FF3202D2A44500F2CB801046A4EB0C0438
:1008A00040EA0740A2E7C1F120068B4022FA06FC8D
:1008B0004CEA030C07FA01F420FA06F3F7404FEA7A
:1008C0001C49234300FA01F81FFA8CFEB7FBF9F02C
:1008D0001C0C09FB107744EA074400FB0EF7A74203
:1008E00002FA01F20AD91CEB040400F1FF3A80F08D
:1008F0009B80A74240F2988002386444E41B9FB278
:10090000B4FBF9F309FB134447EA044403FB0EFE6E
:10091000A64509D91CEB040403F1FF3780F082805F
:10092000A6457FD9023B644443EA0040A4EB0E0491
:10093000A0FB02E7BC427346B94663D360D05DB109
:10094000B8EB030264EB090404FA06F622FA01F399
:100950001E43CC40C5E9006400214CE7620848080A
:1009600042EAC1710B0C43EA00438AB242EA0342F5
:10097000B3FBF6F1E407B4463746B6461F23B0FB97
:10098000F6F0D21B41EA004161E7614614E71046E8
:1009900028E7C3F1200120FA01F29E4027FA01F175
:1009A0009F403A434FEA164E1FFA86FCB1FBFEF712
:1009B0000EFB1710110C41EA004107FB0CF88845AB
:1009C00004FA03F43AD9711807F1FF3001D28845CF
:1009D0001FD8A1EB0801B1FBFEF808FB0CF70EFBDA
:1009E000181192B242EA0142BA422FD2B21808F16B
:1009F000FF31C6D2BA42C4D2A8F102013244C0E7E4
:100A0000F0459CD2BEEB020367EB0C070138B946F8
:100A100095E7A6EB08084144B81EB1FBFEF808FBB9
:100A20000CF7DCE73B467FE7504667E70846FBE606
:100A30003444023832E7023F32441BE7A1EB08019D
:100A40003846B1FBFEF808FB0CF7C8E7414698E7CB
:100A5000704700BF80B500AF2E4B2F4A1A602D4B58
:100A600000229A602B4B0022DA602A4B00221A7473
:100A7000284B00225A74274B00229A74254B0A22D5
:100A80005A61244B01229A61224B1222DA61214BD6
:100A900006221A621F4B0A225A621E4B01229A62D8
:100AA0001C4B1222DA621B4B06221A63194B0022DE
:100AB0005A63184B00229A63164B0C22DA63154BCB
:100AC00000221A64134B04225A64124B00229A64C7
:100AD000104B0422DA640F4B0C221A650D4B0422D2
:100AE0005A650C4B00229A650A4B0022DA65094BC5
:100AF00020221A66074B00225A66064B04229A6689
:100B0000044801F0EFFE0346002B01D000F00AFF7D
:100B100000BF80BD2001002000A4004080B58AB045
:100B200000AF786007F1140300221A605A609A60DF
:100B3000DA601A617B681B681A4A93422ED11A4BFD
:100B4000D3F8EC30184A43F48073C2F8EC30164BFB
:100B5000D3F8EC3003F480733B613B69124BD3F85C
:100B6000E030114A43F00203C2F8E0300E4BD3F8F4
:100B7000E03003F00203FB60FB684FF440537B61FD
:100B80000223BB610023FB6100233B6209237B62DC
:100B900007F114031946054802F046FD00BF283747
:100BA000BD4680BD00A40040004402580004025825
:100BB00080B588B000AF3B1D00221A605A609A6071
:100BC000DA601A615A619A61214B224A1A60204BFD
:100BD00000225A601E4B00229A601D4B0422DA60EC
:100BE0001B4B10221A611A4B40225A61184B4FF4CA
:100BF000C0729A61164B0022DA61154B4FF4006205
:100C00001A62134B4FF480525A62114B00229A62BF
:100C100002237B600E23BB600823FB600C233B6137
:100C200003237B610323BB610323FB613B1D194647
:100C3000074806F0ADF90346002B01D000F072FE24
:100C40004FF0807001F0E2FC00BF2037BD4680BD50
:100C5000C00100204041005280B586B000AF3B1D6E
:100C600000221A605A609A60DA601A613C4B1B6875
:100C7000002B70D13A4B01221A603A4BD3F8D43092
:100C8000384A43F48053C2F8D430364BD3F8D430CA
:100C900003F480533B603B684FF63F037B600223C5
:100CA000BB600023FB6003233B610C237B613B1D86
:100CB00019462D4802F0B8FC0C237B600223BB6070
:100CC0000023FB6003233B610C237B613B1D194622
:100CD000264802F0A9FC80237B600223BB6000232E
:100CE000FB6003233B610C237B613B1D19462048BD
:100CF00002F09AFC48F233137B600223BB600023AE
:100D0000FB6003233B610C237B613B1D19461948A3
:100D100002F08AFC4FF683737B600223BB600023E2
:100D2000FB6003233B610C237B613B1D194612488A
:100D300002F07AFC4CF203737B600223BB60002359
:100D4000FB6003233B610C237B613B1D19460B4871
:100D500002F06AFC00E000BF1837BD4680BD00BF4E
:100D6000F401002000440258001402580008025800
:100D7000000002580018025800100258000C0258D7
:100D800080B582B000AF7860FFF766FF00BF08371C
:100D9000BD4680BD80B58EB000AF07F124030022B0
:100DA0001A605A609A60DA601A61854BD3F8E030B5
:100DB000834A43F01003C2F8E030814BD3F8E030AF
:100DC00003F010033B623B6A7D4BD3F8E0307C4A72
:100DD00043F00403C2F8E030794BD3F8E03003F07D
:100DE0000403FB61FB69764BD3F8E030744A43F0AF
:100DF0002003C2F8E030724BD3F8E03003F0200358
:100E0000BB61BB696E4BD3F8E0306D4A43F08003A1
:100E1000C2F8E0306A4BD3F8E03003F080037B6126
:100E20007B69674BD3F8E030654A43F00103C2F8B1
:100E3000E030634BD3F8E03003F001033B613B69E2
:100E40005F4BD3F8E0305E4A43F00203C2F8E03073
:100E50005B4BD3F8E03003F00203FB60FB68584BB8
:100E6000D3F8E030564A43F04003C2F8E030544B28
:100E7000D3F8E03003F04003BB60BB68504BD3F8BD
:100E8000E0304F4A43F00803C2F8E0304C4BD3F84F
:100E9000E03003F008037B607B6800224FF4805150
:100EA000484802F089FD00224FF48041464802F094
:100EB00083FD0C237B620323BB620023FB6207F1EB
:100EC00024031946414802F0AFFB4FF232337B62F4
:100ED0000323BB620023FB6207F1240319463C484D
:100EE00002F0A2FB4FF470737B620323BB6200230A
:100EF000FB6207F124031946364802F095FB40F2E5
:100F000001137B620323BB620023FB6207F124030E
:100F100019462C4802F088FB04237B620323BB6242
:100F20000023FB6207F1240319462B4802F07CFBE7
:100F300042F6B4037B620323BB620023FB6207F12A
:100F400024031946254802F06FFB4FF403737B62BC
:100F50000323BB620023FB6207F1240319461A48EE
:100F600002F062FB4FF480537B620123BB620023DB
:100F7000FB6200233B6307F124031946114802F08A
:100F800053FB4FF480437B620123BB620023FB626F
:100F900000233B6307F1240319460B4802F044FB8E
:100FA00010237B620023BB620023FB6207F1240352
:100FB0001946094802F038FB00BF3837BD4680BDEE
:100FC000004402580000025800180258001002584D
:100FD000000802580014025800040258000C02587D
:100FE00080B500AF214B224A1A60204B214A5A603B
:100FF0001E4B00229A601D4B0222DA601B4B01221D
:101000001A611A4B00225A61184B00229A61174B41
:101010000022DA61154B00221A62144B00225A6238
:10102000124B00229A62114B0022DA620F4B48F2F7
:10103000B8521A630D4806F045F80346002B01D05C
:1010400000F070FC094806F03DF90346002B01D082
:1010500000F068FC0021054806F0ECF80346002B80
:1010600001D000F05FFC00BF80BD00BFF801002090
:10107000001C0058B175703080B5BAB000AF786010
:1010800007F1D40300221A605A609A60DA601A618C
:1010900007F11003C0220021184633F002FB7B68E1
:1010A0001B68264A934245D14FF010024FF00003CF
:1010B000C7E904230023C7F8A83007F11003184636
:1010C00004F03AF90346002B01D000F02BFC1C4B36
:1010D000D3F8E0301A4A43F00203C2F8E030184B6C
:1010E000D3F8E03003F00203FB60FB68E023C7F8AD
:1010F000D4301223C7F8D8300023C7F8DC300023DF
:10110000C7F8E0300623C7F8E43007F1D4031946E6
:101110000C4802F089FA0A4BD3F8F430084A43F03D
:101120008003C2F8F430064BD3F8F43003F08003A8
:10113000BB60BB6800BFE837BD4680BD001C0058DF
:10114000004402580004025880B58EB000AF3B1D29
:1011500034220021184633F0A4FA394B394A1A6078
:10116000374B00225A60364B00229A60344B4FF0C6
:101170000052DA60324B00221A61314B01225A616F
:101180002F4B01229A612E4B4422DA612C4B122202
:101190001A622B4B4FF4C2725A62294B4FF4817280
:1011A0009A62274B4FF4CC72DA62254B4FF483726C
:1011B0001A63234B002283F83420214B002283F84A
:1011C00035201F4B002283F836201D4802F027FCF3
:1011D0000346002B01D000F0A5FB00237B604FF4F9
:1011E000A073BB600023FB60F0233B6102237B61A3
:1011F000FF23BB610023FB614FF480633B62052347
:101200007B620023BB624FF4A073FB62F0233B635D
:10121000002387F83430002387F83530002387F81F
:1012200036303B1D00221946054802F04DFD0346AD
:10123000002B01D000F076FB00BF3837BD4680BDE3
:10124000480200200010005080B590B000AF7860D8
:1012500007F12C0300221A605A609A60DA601A6162
:101260007B681B68964A934240F02581954BD3F8E2
:10127000E430944A43F00803C2F8E430914BD3F8C9
:10128000E43003F00803BB62BB6A8E4BD3F8E03056
:101290008C4A43F01003C2F8E0308A4BD3F8E030B8
:1012A00003F010037B627B6A864BD3F8E030854AFB
:1012B00043F02003C2F8E030824BD3F8E03003F073
:1012C00020033B623B6A7F4BD3F8E0307D4A43F01A
:1012D0000403C2F8E0307B4BD3F8E03003F00403A2
:1012E000FB61FB69774BD3F8E030764A43F00103AA
:1012F000C2F8E030734BD3F8E03003F00103BB6178
:10130000BB69704BD3F8E0306E4A43F00203C2F879
:10131000E0306C4BD3F8E03003F002037B617B6973
:10132000684BD3F8E030674A43F04003C2F8E0303E
:10133000644BD3F8E03003F040033B613B69614B01
:10134000D3F8E0305F4A43F00803C2F8E0305D4B69
:10135000D3F8E03003F00803FB60FB687023FB6206
:1013600002233B6300237B630323BB630E23FB63E6
:1013700007F12C031946544802F056F94FF48063E4
:10138000FB6202233B6300237B630323BB630E23C7
:10139000FB6307F12C0319464C4802F045F9C123C1
:1013A000FB6202233B6300237B630323BB630E23A7
:1013B000FB6307F12C031946454802F035F97E23FB
:1013C000FB6202233B6300237B630323BB630E2387
:1013D000FB6307F12C0319463E4802F025F903236D
:1013E000FB6202233B6300237B630323BB6309236C
:1013F000FB6307F12C031946374802F015F94FF447
:101400007063FB6202233B6300237B630323BB63A4
:101410000E23FB6307F12C0319462F4802F004F951
:101420004FF46353FB6202233B6300237B6303237C
:10143000BB630E23FB6307F12C031946274802F018
:10144000F3F84FF48063FB6202233B6300237B636A
:101450000323BB630C23FB6307F12C0319461D48D0
:1014600002F0E2F84823FB6202233B6300237B6324
:101470000323BB630E23FB6307F12C0319461848B3
:1014800002F0D2F84FF48063FB6202233B63002337
:101490007B630323BB630923FB6307F12C0319461A
:1014A0000E4802F0C1F800220021582001F07AF91C
:1014B000582001F091F900BF4037BD4680BD00BF04
:1014C0000010005000440258001002580014025846
:1014D0000008025800000258000402580018025880
:1014E000000C025880B584B000AF00F069F94B4B96
:1014F0005B6903F40033002B1BD1BFF34F8F00BF98
:10150000BFF36F8F00BF454B0022C3F85022BFF3DB
:101510004F8F00BFBFF36F8F00BF404B5B693F4AE7
:1015200043F400335361BFF34F8F00BFBFF36F8F9E
:1015300000E000BF394B5B6903F48033002B38D1E6
:10154000364B0022C3F88420BFF34F8F00BF334BCC
:10155000D3F88030FB60FB685B0BC3F30E03BB600A
:10156000FB68DB08C3F309037B60BB685A0143F6E1
:10157000E07313407A68920728491343C1F8603238
:101580007B685A1E7A60002BEFD1BB685A1EBA6086
:10159000002BE5D1BFF34F8F00BF204B5B691F4A83
:1015A00043F480335361BFF34F8F00BFBFF36F8F9E
:1015B00000E000BF00F09EFF00F03AF800F0B4F841
:1015C000FFF7E8FBFFF7C0FDFFF7F2FA00F0D0FEEF
:1015D000FFF706FDFFF73EFA00F0AAF900F0B6FCAF
:1015E00000F008FD00F060FD01224FF480510C482E
:1015F00002F0E2F90B4809F03BFD0B4B01221A7097
:1016000009F020FE72B600BF4FF48041074802F097
:10161000ECF9642000F0CAFF00BFF5E700ED00E040
:1016200000000258C0010020F002002000180258FB
:1016300080B59CB000AF07F124034C22002118466E
:1016400033F02FF83B1D20220021184633F029F8F3
:10165000022002F00FFE00233B60314B9B69304AB1
:1016600043F4404393612E4B9B6903F440433B603A
:101670002C4BDB6A2B4A43F00103D362294BDB6A14
:1016800003F001033B603B6800BF254B9B6903F4FB
:101690000053B3F5005FF8D101237B624FF4803330
:1016A000BB620223BB640223FB6408233B654FF447
:1016B000F0737B650223BB650223FB6502233B6657
:1016C00004237B660023BB660023FB6607F124032B
:1016D000184602F009FE0346002B01D000F022F963
:1016E0003F237B600323BB600023FB6008233B6137
:1016F00040237B614023BB614FF48063FB61402347
:101700003B623B1D0421184603F048FA0346002BB8
:1017100001D000F007F900BF7037BD4680BD00BFA3
:10172000004802580004005880B5B0B000AF3B46F6
:10173000C0220021184632F0B4FF1FA3D3E90023D2
:10174000C7E900230823BB60C823FB6004233B6177
:1017500004237B610223BB614023FB6100233B62C6
:1017600000237B620823BB626423FB6202233B638A
:1017700002237B631423BB634FF48063FB6300236A
:101780003B6400237B640223BB644FF400533B663D
:101790004FF000533B670123BB673B46184603F0FD
:1017A000CBFD0346002B01D000F0BCF800BFC037D2
:1017B000BD4680BDAFF30080029000210000000014
:1017C00080B584B000AF3B4600221A605A609A6030
:1017D000DA6001F00FF801233B7000237B700023D7
:1017E0007B600F233B7200237B720023BB720123BB
:1017F000FB7200233B7300237B730023BB73002326
:10180000FB733B46184601F02DF801237B704FF027
:1018100000637B6014233B720523FB720123BB73BF
:101820000123FB733B46184601F01CF802237B7032
:101830004FF000537B6010233B720123FB720123A6
:101840003B733B46184601F00DF803237B704FF0C5
:1018500010537B6012233B723B46184601F002F89E
:1018600004237B704FF040537B603B46184600F0EA
:10187000F9FF05237B704FF060537B600F233B72B1
:1018800000237B723B46184600F0ECFF06237B707A
:101890004FF080437B601C233B7200237B7200234C
:1018A000BB730023FB733B46184600F0DBFF0723A6
:1018B0007B704FF0C0437B6016233B720123BB73E8
:1018C0000123FB733B46184600F0CCFF08237B70D6
:1018D00013233B7201237B733B46184600F0C2FF83
:1018E000022000F09FFF00BF1037BD4680BD000002
:1018F00080B582B000AF78607B681B68074A93426E
:1019000001D100F033FE064B1B78DBB2002B01D077
:1019100008F07AFB00BF0837BD4680BD0048014093
:10192000F002002080B400AF72B600BF00BFFDE738
:1019300080B500AF274B284A1A60264B4FF480022F
:101940005A60244B4FF4C0229A60224B0322DA6083
:10195000204B00221A611F4B00225A611D4B4FF091
:1019600000529A611B4B0022DA611A4B00221A6264
:10197000184B00225A62174B00229A62154B002224
:10198000DA62144B4FF080425A63124B00229A6382
:10199000104B0022DA630F4B00221A640D4B002219
:1019A0005A640C4B00229A640A4B0022DA64094BF9
:1019B00000221A65074B00225A65064B00229A65E1
:1019C000044805F0D3FC0346002B01D0FFF7AAFF23
:1019D00000BF80BDF40200200038004080B58AB00E
:1019E00000AF786007F1140300221A605A609A6011
:1019F000DA601A617B681B682A4A93424ED12A4BEF
:101A0000D3F8E830284A43F48043C2F8E830264B44
:101A1000D3F8E83003F480433B613B69224BD3F8B1
:101A2000E030214A43F00203C2F8E0301E4BD3F805
:101A3000E03003F00203FB60FB681B4BD3F8E0309F
:101A4000194A43F00103C2F8E030174BD3F8E030F5
:101A500003F00103BB60BB684FF400437B610223CA
:101A6000BB610023FB6100233B6205237B6207F11E
:101A7000140319460D4801F0D7FD4FF420637B6134
:101A80000223BB610023FB6100233B6205237B62D1
:101A900007F114031946064801F0C6FD00BF2837B8
:101AA000BD4680BD00380040004402580004025882
:101AB0000000025880B584B000AF07F1080300228F
:101AC0001A605A600E4BD3F8F4300D4A43F002030B
:101AD000C2F8F4300A4BD3F8F43003F002037B6011
:101AE0007B680023BB600023FB6007F108031846F6
:101AF00002F036FB02F0AEFB00BF1037BD4680BDE2
:101B00000044025880B58EB000AF78607B680F2B20
:101B100044D800227968762000F044FE762000F058
:101B20005BFE244A7B681360234BD3F8F030224AD3
:101B300043F48023C2F8F0301F4BD3F8F03003F4A5
:101B40008023BB60BB6807F10C0207F1100311464C
:101B5000184603F0AFFB03F097FB03465B007B6383
:101B60007B6B164AA2FB03239B0C013B3B63144B8C
:101B7000144A1A60124B40F2E732DA60104A3B6BAB
:101B800053600F4B00221A610D4B00229A600C48E3
:101B900005F02BFD0346002B07D101E0012305E0F2
:101BA000074805F083FD034600E001231846383757
:101BB000BD4680BD080000200044025883DE1B4360
:101BC0007C0300200048014080B400AF00BFFDE767
:101BD00080B400AF00BFFDE780B400AF00BFFDE7F9
:101BE00080B400AF00BFFDE780B400AF00BFFDE7E9
:101BF00080B400AF00BFBD465DF8047B704780B481
:101C000000AF00BFBD465DF8047B704780B400AFF5
:101C100000BFBD465DF8047B704780B400AF00BFD5
:101C2000BD465DF8047B704780B500AF024801F007
:101C300093FF00BF80BD00BF4802002080B500AF09
:101C4000024806F045F800BF80BD00BF7C030020BD
:101C500080B400AF01231846BD465DF8047B704791
:101C600080B582B000AF7860396032F0BDFD0346C8
:101C700016221A604FF0FF3318460837BD4680BD64
:101C800080B582B000AF78604FF0FF317868FFF721
:101C9000E7FF00BFFDE780B586B000AFF860B96030
:101CA0007A6000237B610AE0AFF300800146BB68E5
:101CB0005A1CBA60CAB21A707B6901337B617A69B7
:101CC0007B689A42F0DB7B6818461837BD4680BDBA
:101CD00080B586B000AFF860B9607A6000237B61A0
:101CE00009E0BB685A1CBA601B781846AFF3008045
:101CF0007B6901337B617A697B689A42F1DB7B689F
:101D000018461837BD4680BD80B483B000AF7860F8
:101D10004FF0FF3318460C37BD465DF8047B704723
:101D200080B483B000AF786039603B684FF40052F4
:101D30005A60002318460C37BD465DF8047B704797
:101D400080B483B000AF7860012318460C37BD46DD
:101D50005DF8047B704780B485B000AFF860B9606F
:101D60007A60002318461437BD465DF8047B70473F
:101D700080B586B000AF7860144A154BD31A7B61EA
:101D80007B693B61134B1B68002B02D1114B124A3C
:101D90001A60104B1A687B6813443A699A4207D25A
:101DA00032F022FD03460C221A604FF0FF3309E0A7
:101DB000084B1B68FB60074B1A687B681344054A95
:101DC0001360FB6818461837BD4680BD000002202E
:101DD00000040000C8030020E814002080B400AF15
:101DE000434BD3F88830424A43F47003C2F888303A
:101DF000404B1B6803F00F03062B07D83D4B1B68B5
:101E000023F00F033B4A43F0070313603A4B1B6870
:101E1000394A43F001031360374B00221A61364BF5
:101E20001A683549354B13400B60324B1B6803F081
:101E30000803002B07D02F4B1B6823F00F032D4AFC
:101E400043F0070313602C4B00229A612A4B0022B7
:101E5000DA61294B00221A62274B294A9A62264BE3
:101E6000284ADA62244B284A1A63234B00225A6319
:101E7000214B254A9A63204B0022DA631E4B224AEB
:101E80001A641D4B00225A641B4B1B681A4A23F428
:101E900080231360184B00221A661C4B1A681C4BD7
:101EA0001340B3F1005F02D21A4B01221A60124BA9
:101EB000D3F8D43003F48053002B13D10E4BD3F856
:101EC000D4300D4A43F48053C2F8D430124B43F25D
:101ED000D2021A60084BD3F8D430074A23F4805357
:101EE000C2F8D43000BFBD465DF8047B704700BF28
:101EF00000ED00E000200052004402587FEDF6EAB9
:101F0000000202020000FF01800201010010005CDB
:101F10000000FFFF088100510040005280B400AF74
:101F2000094BDB68084A43F00203D36000BF064B4D
:101F30005B6803F40053002BF9D000BF00BFBD461F
:101F40005DF8047B704700BF0048025880B58CB034
:101F500000AF07F10C0324220021184632F0A1FB48
:101F60003B4600221A605A609A60214B4FF0804233
:101F70001A601F4B00225A601D4B00229A601C4BB6
:101F80004FF0FF32DA601A4B00221A61184B002220
:101F90009A610123FB6000233B6101237B610023E5
:101FA000BB610023FB6100233B6201237B620023B2
:101FB000BB620023FB6207F10C0319460C4805F0D5
:101FC00053FD0346002B01D0FFF7ACFC00233B6020
:101FD0000023BB603B461946054806F059FC034602
:101FE000002B01D0FFF79EFC00BF3037BD4680BDFF
:101FF000CC03002080B58AB000AF07F11C0300229B
:102000001A605A609A603B4600221A605A609A60D1
:10201000DA601A615A619A61214B224A1A60204B98
:1020200013225A601E4B00229A601D4BFF22DA6079
:102030001B4B00221A611A4B00229A61184805F0C6
:10204000ADFB0346002B01D0FFF76CFC0023FB61C6
:1020500000237B6207F11C031946114806F018FCA7
:102060000346002B01D0FFF75DFC60233B60642337
:102070007B600023BB6000233B613B460022194686
:10208000074805F02DFF0346002B01D0FFF74AFC5F
:10209000034800F007F900BF2837BD4680BD00BFE8
:1020A000180400200008004080B58AB000AF07F196
:1020B0001C0300221A605A609A603B4600221A6094
:1020C0005A609A60DA601A615A619A61214B224A19
:1020D0001A60204B13225A601E4B00229A601D4B3F
:1020E000FF22DA601B4B00221A611A4B00229A6110
:1020F000184805F053FB0346002B01D0FFF712FCF4
:102100000023FB6100237B6207F11C031946114881
:1021100006F0BEFB0346002B01D0FFF703FC602353
:102120003B6064237B600023BB6000233B613B4634
:1021300000221946074805F0D3FE0346002B01D0C4
:10214000FFF7F0FB034800F0ADF800BF2837BD46AD
:1021500080BD00BF640400200018004080B58AB034
:1021600000AF786007F1140300221A605A609A6089
:10217000DA601A617B681B68B3F1804F4DD1294B3F
:10218000D3F8E830274A43F00103C2F8E830254B82
:10219000D3F8E83003F001033B613B69214BD3F8EE
:1021A000E030204A43F00103C2F8E0301D4BD3F881
:1021B000E03003F00103FB60FB681A4BD3F8E0301A
:1021C000184A43F00203C2F8E030164BD3F8E0306F
:1021D00003F00203BB60BB684FF400437B61022342
:1021E000BB610023FB6100233B6201237B6207F19B
:1021F000140319460C4801F017FA08237B610223E7
:10220000BB610023FB6100233B6201237B6207F17A
:1022100014031946054801F007FA00BF2837BD46E8
:1022200080BD00BF0044025800000258000402585C
:1022300080B485B000AF78607B681B68164A934213
:102240000FD1164BD3F8E830144A43F00403C2F818
:10225000E830124BD3F8E83003F00403FB60FB686E
:1022600013E07B681B680E4A93420ED10B4BD3F8E8
:10227000E8300A4A43F04003C2F8E830074BD3F88D
:10228000E83003F04003BB60BB6800BF1437BD46B5
:102290005DF8047B704700BF00080040004402580E
:1022A0000018004080B58AB000AF786007F11403D1
:1022B00000221A605A609A60DA601A617B681B68B3
:1022C000264A934220D1264BD3F8E030244A43F0EB
:1022D0000803C2F8E030224BD3F8E03003F00803E3
:1022E0003B613B694FF480537B610223BB61002358
:1022F000FB6100233B6202237B6207F11403194652
:10230000184801F091F924E07B681B68164A934253
:102310001FD1134BD3F8E030114A43F00203C2F847
:10232000E0300F4BD3F8E03003F00203FB60FB68B2
:102330004FF480437B610223BB610023FB610023D8
:102340003B6202237B6207F114031946074801F040
:102350006BF900BF2837BD4680BD00BF00080040B4
:1023600000440258000C02580018004000040258B3
:1023700080B500AF224B234A1A60214B4FF4E13263
:102380005A601F4B00229A601D4B0022DA601C4BE2
:1023900000221A611A4B0C225A61194B00229A61D1
:1023A000174B0022DA61164B00221A62144B0022EE
:1023B0005A62134B00229A62114806F015FB03463D
:1023C000002B01D0FFF7AEFA00210D4807F01DFBEE
:1023D0000346002B01D0FFF7A5FA0021084807F0BB
:1023E00052FB0346002B01D0FFF79CFA044807F08C
:1023F000D3FA0346002B01D0FFF794FA00BF80BD4B
:10240000B0040020004C004080B58AB000AF786076
:1024100007F1140300221A605A609A60DA601A61A8
:102420007B681B681A4A93422ED11A4BD3F8E830C6
:10243000184A43F40023C2F8E830164BD3F8E830CA
:1024400003F400233B613B69124BD3F8E030114A9F
:1024500043F00403C2F8E0300E4BD3F8E03003F051
:102460000403FB60FB684FF440637B610223BB61A4
:102470000023FB6100233B6208237B6207F1140306
:102480001946054801F0D0F800BF2837BD4680BD89
:10249000004C00400044025800080258DFF838D0D1
:1024A000FFF73CFDFFF79AFC0C480D490D4A00234D
:1024B00002E0D458C4500433C4188C42F9D30A4AF9
:1024C0000A4C002301E013600432A242FBD332F035
:1024D00091F9FFF707F87047000002200000002084
:1024E00004010020ACB0030804010020E414002023
:1024F000FEE7000080B582B000AF032000F047F98E
:1025000002F002FD0246154B9B691B0A03F00F0304
:102510001349CB5C03F01F0322FA03F37B600F4BDC
:102520009B6903F00F030E4AD35C03F01F037A6824
:1025300022FA03F30B4A13600B4A7B6813600F20E7
:10254000FFF7E0FA0346002B01D0012302E0FFF77A
:10255000B1FA002318460837BD4680BD0044025832
:10256000B07E0308040000200000002080B400AF0B
:10257000064B1B781A46064B1B681344044A13602B
:1025800000BFBD465DF8047B704700BF0C00002013
:102590004405002080B400AF034B1B681846BD46BD
:1025A0005DF8047B704700BF4405002080B584B00F
:1025B00000AF7860FFF7EEFFB8607B68FB60FB68F8
:1025C000B3F1FF3F05D00A4B1B781A46FB68134452
:1025D000FB6000BFFFF7DEFF0246BB68D31AFA6854
:1025E0009A42F7D800BF00BF1037BD4680BD00BF7C
:1025F0000C00002080B400AF034B1B681B0C184676
:10260000BD465DF8047B70470010005C80B483B069
:1026100000AF7860064B1B6823F0407204497B686A
:1026200013430B6000BF0C37BD465DF8047B704759
:102630000040005280B485B000AF78607B6803F042
:102640000703FB600B4BDB68BB60BA684FF6FF0308
:102650001340BB60FB681A02BB681A43064B134366
:10266000BB60044ABB68D36000BF1437BD465DF849
:10267000047B704700ED00E00000FA0580B400AF75
:10268000044BDB681B0A03F007031846BD465DF8E0
:10269000047B704700ED00E080B483B000AF0346D8
:1026A000FB80B7F90630002B0BDBFB8803F01F0221
:1026B0000749B7F906305B09012000FA02F241F838
:1026C000232000BF0C37BD465DF8047B704700BF78
:1026D00000E100E080B483B000AF03463960FB80C6
:1026E000B7F90630002B0ADB3B68DAB20C49B7F9C0
:1026F00006301201D2B20B4483F800230AE03B6893
:10270000DAB20849FB8803F00F03043B1201D2B28E
:102710000B441A7600BF0C37BD465DF8047B70474A
:1027200000E100E000ED00E080B489B000AFF860A7
:10273000B9607A60FB6803F00703FB61FB69C3F1D2
:102740000703042B28BF0423BB61FB690433062B5A
:1027500002D9FB69033B00E000237B614FF0FF32AD
:10276000BB6902FA03F3DA43BB681A407B699A40FB
:102770004FF0FF317B6901FA03F3D9437B680B40CB
:10278000134318462437BD465DF8047B704780B577
:1027900082B000AF78607868FFF74CFF00BF083761
:1027A000BD4680BD80B586B000AF0346B9607A6093
:1027B000FB81FFF763FF78617A68B9687869FFF792
:1027C000B3FF0246B7F90E3011461846FFF782FFF5
:1027D00000BF1837BD4680BD80B582B000AF03464C
:1027E000FB80B7F906301846FFF756FF00BF0837E1
:1027F000BD4680BD80B400AFBFF35F8F00BF074B05
:102800005B6A064A23F480335362054B00225A6008
:1028100000BFBD465DF8047B704700BF00ED00E0DF
:1028200090ED00E080B483B000AF78600B4A7B6825
:1028300043F0010353600A4B5B6A094A43F4803357
:102840005362BFF34F8F00BFBFF36F8F00BF00BF56
:102850000C37BD465DF8047B704700BF90ED00E08B
:1028600000ED00E080B483B000AF78607B685A78F8
:102870001B4B9A601A4B1B69194A23F00103136121
:10288000174A7B685B68D3607B681B7B1A077B6891
:10289000DB7A1B061A437B689B7ADB041A437B684E
:1028A0005B7B9B041A437B689B7B5B041A437B68BE
:1028B000DB7B1B041A437B685B7A1B021A437B6831
:1028C0001B7A5B0013437A6812781146044A0B4363
:1028D000136100BF0C37BD465DF8047B704700BF35
:1028E00090ED00E080B598B000AF7860844A07F1C1
:1028F0000C0311464C22184631F0ABFF7B68002BCD
:1029000001D10123C6E17B681B687E4A934206D150
:102910007B681B6803F580731A467B685A607B6886
:1029200093F89830DBB2002B06D17B68002283F845
:1029300099207868FEF7F2F87B681B689A697B68D3
:102940001B6822F010029A61FFF724FEF86514E07C
:10295000FFF720FE0246FB6DD31A0A2B0DD97B68C8
:10296000D3F89C3043F001027B68C3F89C207B685D
:10297000032283F8982001238CE17B681B689B6904
:1029800003F00803082BE3D07B681B689A697B6817
:102990001B6842F001029A61FFF7FCFDF86514E044
:1029A000FFF7F8FD0246FB6DD31A0A2B0DD97B68A1
:1029B000D3F89C3043F001027B68C3F89C207B680D
:1029C000032283F89820012364E17B681B689B69DC
:1029D00003F00103002BE3D07B681B689A697B68D6
:1029E0001B6842F002029A617B681B7C012B08D1B4
:1029F0007B681B689A697B681B6822F040029A61B9
:102A000007E07B681B689A697B681B6842F040029C
:102A10009A617B685B7C012B08D17B681B689A6993
:102A20007B681B6842F480429A6107E07B681B6800
:102A30009A697B681B6822F480429A617B689B7C60
:102A4000012B08D17B681B689A697B681B6822F49C
:102A500080529A6107E07B681B689A697B681B68F3
:102A600042F480529A617B681B689B6923F4407131
:102A70007B689A687B681B680A439A617B681B685D
:102A80009A697B681B6822F0A4029A617B681B68C4
:102A90001A697B681B6822F010021A617B68DB6888
:102AA000012B08D17B681B689A697B681B6842F020
:102AB00004029A6130E07B68DB68002B2CD07B68D5
:102AC000DB68022B20D07B681B689A697B681B68D7
:102AD00042F080029A617B681B681A697B681B68F8
:102AE00042F010021A617B68DB68032B14D17B680B
:102AF0001B689A697B681B6842F020029A610BE0B0
:102B00005855030800A000407B681B689A697B68E1
:102B10001B6842F020029A617B689B69013B5A0660
:102B20007B68DB69013B1B021A437B681B6A013B24
:102B300042EA03017B685B69013B1A047B681B68FE
:102B40000A43DA617B689B68B3F5407F15D17B68E7
:102B50009B6A5A1E7B68DB6A013B1B021A437B6837
:102B60001B6B013B1B0142EA03017B685B6A013B73
:102B70001A047B681B680A43DA607B681B6E002BB3
:102B80000AD07B681B68D3F8C0107B685A6E7B68DC
:102B90001B680A43C3F8C0207B68DA6D7B681B6E34
:102BA0001344002B11D07B681B68D3F8C83023F086
:102BB00007017B689B6E9B0060333B4453F8542CA9
:102BC0007B681B680A43C3F8C8207B681B6C002B1A
:102BD00011D07B681B68D3F8BC3023F007017B68F9
:102BE0005B6C9B0060333B4453F8542C7B681B6840
:102BF0000A43C3F8BC207B689B6C002B12D07B6817
:102C00001B68D3F8BC3023F070017B68DB6C9B0041
:102C100060333B4453F8543C1A017B681B680A43F9
:102C2000C3F8BC207B681B6D002B12D07B681B682F
:102C3000D3F8BC3023F4E0617B685B6D9B006033AC
:102C40003B4453F8543C1A027B681B680A43C3F8A0
:102C5000BC207B681B68114A934207D17B685B6884
:102C60009A687B685B6822F003029A607B680022A6
:102C7000C3F894207B680022C3F89C207B68012263
:102C800083F89820786800F0CBFA034687F85B3029
:102C900097F85B3018466037BD4680BD00A0004005
:102CA00080B487B000AF786039607B6893F8983063
:102CB000FB73FB7B012B02D0FB7B022B57D13B68C4
:102CC0001B68002B2BD13B68DB68072B0DD13B68C1
:102CD0001B691A043B68DB691B021A433B689B694A
:102CE000134343F060537B610EE03B689B689A0797
:102CF0003B68DB68DB061A433B681B691B041A430D
:102D00003B685B6913437B617B68DA6E3B685B6899
:102D10009B001344BB60BB687A691A6025E03B687E
:102D2000DB685A073B681B6913437B613B68DB68C0
:102D3000072B03D13B689B693B6106E03B689B68BE
:102D40009A073B685B6913433B617B681A6F3B687A
:102D50005B68DB001344BB60BB687A691A60BB68C0
:102D60000433BB60BB683A691A60002308E07B68E3
:102D7000D3F89C3043F002027B68C3F89C20012307
:102D800018461C37BD465DF8047B704780B483B09D
:102D900000AF78607B6893F89830DBB2012B11D1DB
:102DA0007B68022283F898207B681B689A697B689D
:102DB0001B6822F001029A617B680022C3F89C2004
:102DC000002308E07B68D3F89C3043F004027B6862
:102DD000C3F89C20012318460C37BD465DF8047BE0
:102DE000704780B586B000AFF860B9607A60FB6864
:102DF00093F89830DBB2022B41D1FB681B68D3F803
:102E0000C03003F07C53002B09D1FB68D3F89C3011
:102E100043F02002FB68C3F89C20012338E0FB68E4
:102E20001B68D3F8C43003F40013002B09D0FB68EF
:102E3000D3F89C3043F40072FB68C3F89C20012354
:102E400026E0FB681B68D3F8C4301B0C03F01F039B
:102E50007B617B697A68B968F86800F067FBFB689A
:102E60001B6801217A6901FA02F2C3F8D02001221D
:102E70007B699A40FB68C3F89420002308E0FB6854
:102E8000D3F89C3043F00802FB68C3F89C20012370
:102E900018461837BD4680BD80B48BB000AFF860CF
:102EA000B9607A603B600023FB61FB6893F898305F
:102EB000FB76FB7E022B40F04981BB68402B4CD156
:102EC000FB681B68D3F8A03003F4FE03002B09D184
:102ED000FB68D3F89C3043F02002FB68C3F89C20C9
:102EE00001233CE1FB681B68D3F8A43003F07F03A7
:102EF000002B09D1FB68D3F89C3043F48072FB6847
:102F0000C3F89C2001232AE1FB681B68D3F8A43096
:102F100003F08073B3F1807F0AD1FB681B68D3F89C
:102F2000A03003F00043B3F1004F01D10123FB6156
:102F3000FB681B68D3F8A4301B0A03F03F03FA694F
:102F40001344FB61FB685A6FFB685B6CF96901FB1A
:102F500003F39B0013447B6268E0BB68412B4CD1B8
:102F6000FB681B68D3F8B03003F4FE03002B09D1D3
:102F7000FB68D3F89C3043F02002FB68C3F89C2028
:102F80000123ECE0FB681B68D3F8B43003F07F0347
:102F9000002B09D1FB68D3F89C3043F48072FB68A6
:102FA000C3F89C200123DAE0FB681B68D3F8B43037
:102FB00003F08073B3F1807F0AD1FB681B68D3F8FC
:102FC000B03003F00043B3F1004F01D10123FB61A6
:102FD000FB681B68D3F8B4301B0A03F03F03FA699F
:102FE0001344FB61FB689A6FFB68DB6CF96901FBBA
:102FF00003F39B0013447B6218E0FB681B6DBA6807
:103000009A4209D3FB68D3F89C3043F02002FB6856
:10301000C3F89C200123A2E0FB68DA6FFB685B6DBC
:10302000B96801FB03F39B0013447B627B6A1B6856
:1030300003F080427B685A607B685B68002B07D195
:103040007B6A1B689B0CC3F30A027B681A6005E06D
:103050007B6A1B6823F060427B681A607B6A1B688E
:1030600003F000527B689A607B6A1B6803F00042A1
:103070007B681A617B6A04337B627B6A1B689AB245
:103080007B68DA617B6A1B681B0C03F00F027B68AC
:10309000DA607B6A1B6803F480127B685A617B6A82
:1030A0001B6803F400127B689A617B6A1B681B0E25
:1030B00003F07F027B681A627B6A1B68DA0F7B6809
:1030C0005A627B6A04337B627B6A7B6100233B62CA
:1030D0000AE07A693B6A1A4439683B6A0B44127801
:1030E0001A703B6A01333B627B68DB681F4AD35C22
:1030F0001A463B6A9342ECD3BB68402B05D1FB6870
:103100001B68FA69C3F8A8201EE0BB68412B05D1F3
:10311000FB681B68FA69C3F8B82015E0BB681F2B71
:1031200008D8FB681B680121BA6801FA02F2C3F8EB
:10313000982009E0BB6803F01F02FB681B680121AF
:1031400001FA02F2C3F89C20002308E0FB68D3F8E0
:103150009C3043F00802FB68C3F89C20012318460A
:103160002C37BD465DF8047B704700BFC07E030866
:1031700080B485B000AF786039607B681B68D3F895
:103180009830FB607B681B68D3F89C30BB603B6861
:103190001F2B07D8FA683B6822FA03F303F00103F8
:1031A000002B0CD03B681F2B0BD93B6803F01F038F
:1031B000BA6822FA03F303F00103002B01D10023C4
:1031C00016E03B681F2B08D87B681B6801213A6812
:1031D00001FA02F2C3F8982009E03B6803F01F02ED
:1031E0007B681B68012101FA02F2C3F89C200123CD
:1031F00018461437BD465DF8047B704780B485B02F
:1032000000AF78607B681B68D3F8C43003F03F03DD
:10321000FB60FB6818461437BD465DF8047B7047B9
:1032200080B485B000AF78607B685B6BBB607B6807
:103230001B68D3F88420A74B1340BA6891007A68C2
:1032400012680B43C2F884307B681B68D3F8843063
:1032500023F47F017B689B6B1A047B681B680A431D
:10326000C3F884207B689B6BBA681344BB607B689F
:103270001B68D3F88820974B1340BA6891007A688E
:1032800012680B43C2F888307B681B68D3F888301B
:1032900023F4FE017B68DB6B1A047B681B680A431E
:1032A000C3F888207B68DB6B5B00BA681344BB60A3
:1032B0007B681B68D3F8A020864B1340BA68910046
:1032C0007A6812680B43C2F8A0307B681B68D3F899
:1032D000A03023F4FE017B681B6C1A047B681B681A
:1032E0000A43C3F8A0207B681B6C7A68526C02FB0F
:1032F00003F3BA681344BB607B681B68D3F8B02043
:10330000744B1340BA6891007A6812680B43C2F894
:10331000B0307B681B68D3F8B03023F4FE017B68C3
:103320009B6C1A047B681B680A43C3F8B0207B6857
:103330009B6C7A68D26C02FB03F3BA681344BB60DF
:103340007B681B68D3F8AC20624B1340BA689100CD
:103350007A6812680B43C2F8AC307B681B6D7A68E0
:10336000526D02FB03F3BA681344BB607B681B68B1
:10337000D3F8F020574B1340BA6891007A6812686E
:103380000B43C2F8F0307B681B68D3F8F03023F4AD
:103390007C117B689B6D1A047B681B680A43C3F829
:1033A000F0207B689B6D5B00BA681344BB607B6850
:1033B0001B68D3F8C020474B1340BA6891007A6865
:1033C00012680B43C2F8C0307B681B68D3F8C0306A
:1033D00023F47C117B68DB6D1A047B681B680A434D
:1033E000C3F8C0207B681B68D3F8C03023F07C5141
:1033F0007B681B6E1A067B681B680A43C3F8C020F3
:103400007B685A6B344B13449A007B68DA667B689E
:10341000DA6E7B689B6B9B001A447B681A677B683B
:103420001A6F7B68DB6BDB001A447B685A677B682A
:103430005A6F7B681B6C7968496C01FB03F39B0036
:103440001A447B689A677B689A6F7B689B6C796883
:10345000C96C01FB03F39B001A447B68DA677B6845
:10346000DA6F7B681B6D7968496D01FB03F39B0084
:103470001A447B68C3F880207B68D3F880207B687F
:103480009B6DDB001A447B68C3F884207B68D3F80B
:1034900084207B68DB6D7968896E01FB03F39B00F8
:1034A0001A447B68C3F888207B68D3F888207B683F
:1034B0001B6E7968896E01FB03F39B001A447B68DD
:1034C000C3F890207B68D3F89030044A934215D912
:1034D00006E000BF0300FFFF002B0010FCD30040FC
:1034E0007B68D3F89C3043F020027B68C3F89C20B3
:1034F0007B68032283F89820012310E07B68DB6E51
:10350000FB6005E0FB6800221A60FB680433FB6087
:103510007B68D3F89030FA689A42F3D300231846B8
:103520001437BD465DF8047B704700BF80B489B096
:1035300000AFF860B9607A603B60BB685B68002BE5
:103540000AD1BB681A69BB689B681A43BB681B68D1
:103550009B041343FB610AE0BB681A69BB689B6864
:103560001A43BB681B68134343F08043FB61BB688D
:103570001B6A1A06BB68DB691A43BB689B691A435E
:10358000BB685B691A43BB68DB681B0413433B6180
:10359000FB68D3F88420FB689B6E396801FB03F35A
:1035A0009B001344BB61BB69FA691A60BB690433B1
:1035B000BB61BB693A691A60BB690433BB61002314
:1035C0007B6120E07B6903337A6813441B781A0619
:1035D0007B69023379680B441B781B041A437B69AF
:1035E000013379680B441B781B02134379687A69AD
:1035F0000A4412781A43BB691A60BB690433BB6181
:103600007B6904337B61BB68DB68064AD35C1A467E
:103610007B699342D6D300BF00BF2437BD465DF817
:10362000047B7047C07E030880B489B000AF786027
:1036300039600023FB61894B7B6194E13B681A6828
:103640000121FB6901FA03F313403B613B69002B45
:1036500000F086813B685B6803F00303012B05D013
:103660003B685B6803F00303022B30D17B689B68E7
:10367000BB61FB695B00032202FA03F3DB43BA6917
:103680001340BB613B68DA68FB695B0002FA03F335
:10369000BA691343BB617B68BA699A607B685B68EF
:1036A000BB610122FB6902FA03F3DB43BA691340F1
:1036B000BB613B685B681B0903F00102FB6902FA0E
:1036C00003F3BA691343BB617B68BA695A603B680C
:1036D0005B6803F00303032B17D07B68DB68BB61D7
:1036E000FB695B00032202FA03F3DB43BA69134070
:1036F000BB613B689A68FB695B0002FA03F3BA6935
:103700001343BB617B68BA69DA603B685B6803F0AE
:103710000303022B23D1FB69DA087B68083253F8D4
:103720002230BB61FB6903F007039B000F2202FA02
:1037300003F3DB43BA691340BB613B681A69FB6959
:1037400003F007039B0002FA03F3BA691343BB615A
:10375000FB69DA087B680832B96943F822107B6894
:103760001B68BB61FB695B00032202FA03F3DB43C6
:10377000BA691340BB613B685B6803F00302FB69F5
:103780005B0002FA03F3BA691343BB617B68BA6951
:103790001A603B685B6803F44033002B00F0E08064
:1037A0002F4BD3F8F4302E4A43F00203C2F8F43022
:1037B0002B4BD3F8F43003F00203FB60FB68294A7B
:1037C000FB699B08023352F82330BB61FB6903F0AD
:1037D00003039B000F2202FA03F3DB43BA69134091
:1037E000BB617B68204A934252D07B681F4A934258
:1037F00031D07B681E4A93422BD07B681D4A93428E
:1038000025D07B681C4A93421FD07B681B4A934299
:1038100019D07B681A4A934213D07B68194A9342A5
:103820000DD07B68184A934207D07B68174A9342B1
:1038300001D109232DE00A232BE0082329E00723E7
:1038400027E0062325E0052323E0042321E00323CA
:103850001FE002231DE001231BE000BF8000005891
:1038600000440258000400580000025800040258A6
:1038700000080258000C02580010025800140258A8
:1038800000180258001C0258002002580024025858
:103890000023FA6902F0030292009340BA691343CD
:1038A000BB613849FB699B080233BA6941F82320A0
:1038B0004FF0B0431B68BB613B69DB43BA691340FF
:1038C000BB613B685B6803F48013002B03D0BA69CB
:1038D0003B691343BB614FF0B042BB6913604FF0CB
:1038E000B0435B68BB613B69DB43BA691340BB61B2
:1038F0003B685B6803F40013002B03D0BA693B6993
:103900001343BB614FF0B042BB6953607B695B6896
:10391000BB613B69DB43BA691340BB613B685B68D1
:1039200003F40033002B03D0BA693B691343BB6136
:103930007B69BA695A607B691B68BB613B69DB4381
:10394000BA691340BB613B685B6803F48033002BAA
:1039500003D0BA693B691343BB617B69BA691A60DA
:10396000FB690133FB613B681A68FB6922FA03F3C8
:10397000002B7FF463AE00BF00BF2437BD465DF867
:10398000047B70470004005880B485B000AF7860B5
:103990000B467B807B681A697B881340002B02D022
:1039A0000123FB7301E00023FB73FB7B18461437F4
:1039B000BD465DF8047B704780B483B000AF78608B
:1039C0000B467B8013467B707B78002B03D07A8874
:1039D0007B689A6103E07B881A047B689A6100BF68
:1039E0000C37BD465DF8047B704780B485B000AFEE
:1039F00078600B467B807B685B69FB607A88FB683C
:103A000013401A04FB68D9437B880B401A437B6838
:103A10009A6100BF1437BD465DF8047B704780B5DE
:103A200084B000AF78607B68002B01D101238FE068
:103A30007B6893F8A130DBB2002B06D17B680022B3
:103A400083F8A0207868FDF7FFFB7B68022283F8EB
:103A5000A1207B681B689A697B681B6822F0704212
:103A60009A617B681B6899697B685A687B689B6868
:103A70001A437B68DB681A437B681B691A437B68BF
:103A80001B680A439A617B685B691B04FB607B6867
:103A900099697B681B68FA680A439A607B68DB69EE
:103AA0001B04FB607B68196A7B681B68FA680A4321
:103AB000DA607B685B6A1B04FB607B68996A7B68E1
:103AC0001B68FA680A431A617B68DB6A1B04FB60A7
:103AD0007B68196B7B681B68FA680A435A617B68CC
:103AE00093F835301B02FB607B6893F836301B047B
:103AF000BB607B681B68DA6A7B681B6802F07F42E8
:103B0000DA627B681B68D96ABA68FB6813437A6813
:103B100092F834201A437B681B680A43DA627B6898
:103B20001B685A6B7B681B6842F006025A637B680D
:103B30001B689A697B681B6842F001029A617B6886
:103B40000022C3F8A4207B68012283F8A12000236F
:103B500018461037BD4680BD80B584B000AF786090
:103B60007B681B689B6BFB607B681B685B6BBB6047
:103B7000FB6803F00403002B23D0BB6803F00403AD
:103B8000002B1ED07B681B685A6B7B681B6822F079
:103B900004025A637B681B680422DA637B68D3F8EB
:103BA000A43043F001027B68C3F8A4207B680422A0
:103BB00083F8A1207B68002283F8A020786800F0B9
:103BC0006FF8FB6803F00203002B23D0BB6803F0FF
:103BD0000203002B1ED07B681B685A6B7B681B6836
:103BE00022F002025A637B681B680222DA637B6858
:103BF000D3F8A43043F002027B68C3F8A4207B68AA
:103C0000042283F8A1207B68002283F8A020786832
:103C100000F046F8FB6803F00103002B1BD0BB68E3
:103C200003F00103002B16D07B681B685A6B7B687E
:103C30001B6822F001025A637B681B680122DA6369
:103C40007B68012283F8A1207B68002283F8A020F2
:103C500078680BF0DDFBFB6803F00803002B1BD03A
:103C6000BB6803F00803002B16D07B681B685A6BF7
:103C70007B681B6822F008025A637B681B68082275
:103C8000DA637B68012283F8A1207B68002283F835
:103C9000A020786800F00EF800BF1037BD4680BD48
:103CA00080B483B000AF786000BF0C37BD465DF8CC
:103CB000047B704780B483B000AF786000BF0C37DE
:103CC000BD465DF8047B7047B0B584B000AFF860C6
:103CD000B9607A60FB6893F8A030012B01D1022310
:103CE0002CE0FB68012283F8A020FB68022283F805
:103CF000A120FA687B68342101FB03F3134403F12C
:103D00003802BB6814461D460FCD0FC40FCD0FC43B
:103D10000FCD0FC42B6823607A68B968F86800F08B
:103D2000A9F8FB681B6801225A62FB68012283F82C
:103D3000A120FB68002283F8A0200023184610373A
:103D4000BD46B0BD80B483B000AF78607B6893F8A7
:103D5000A030012B01D1022316E07B68012283F8F9
:103D6000A0207B68022283F8A1200A4B9B69094AA4
:103D700043F4803393617B68012283F8A1207B6840
:103D8000002283F8A020002318460C37BD465DF8BA
:103D9000047B70470010005080B586B000AFF8601B
:103DA000B9607A60FB6893F8A030012B01D102233F
:103DB00024E0FB68012283F8A020FB68022283F83C
:103DC000A1207B68342202FB03F33833FA681344E2
:103DD0007B617B69BA685A627A687969F86800F031
:103DE00049F8FB681B6801225A62FB68012283F8CC
:103DF000A120FB68002283F8A02000231846183772
:103E0000BD4680BD80B483B000AF786039607B6808
:103E100093F8A030012B01D1022323E07B6801221B
:103E200083F8A0207B68022283F8A1207B681B68AE
:103E30005A6B7B681B6822F001025A630C4A3B688C
:103E400013647B681B685A6B7B681B6842F0010235
:103E50005A637B68012283F8A1207B68002283F8E3
:103E6000A020002318460C37BD465DF8047B704740
:103E70000010005080B489B000AFF860B9607A607B
:103E8000BB685A68FB681B68DB681B0CC3F30B0339
:103E900013441B04FB61FB681B681A467B68DB014B
:103EA000134484335B68FA68126811467A68D20159
:103EB0000A44843203F470435360BB681A68FB6899
:103EC0001B68DB681B0CC3F30B0313445A1CFB6811
:103ED0001B6819467B68DB010B4484331946FB6978
:103EE00013434B60BB68DA68FB681B68DB68C3F38D
:103EF0000A0313441B04FB61FB681B681A467B68BA
:103F0000DB01134484339B68FA68126811467A68AF
:103F1000D2010A44843203F470439360BB689A6808
:103F2000FB681B68DB68C3F30A0313445A1CFB6875
:103F30001B6819467B68DB010B4484331946FB6917
:103F400013438B60FB681B681A467B68DB011344D4
:103F500084331B69FA68126811467A68D2010A44F0
:103F6000843223F007031361FB681B681A467B68E1
:103F7000DB01134484331A46BB681B691361BB68B9
:103F800093F831301B02FB61BB6893F832301B049D
:103F9000BB61BB689B691B067B61BB6893F83030D3
:103FA0001A46FB691A43BB691A43FB681B6819462A
:103FB0007B68DB010B44843319467B6913438B61B7
:103FC000FB681B681A467B68DB01134484335B691A
:103FD000FA68126811467A68D2010A44843223F0E2
:103FE000FF035361FB681B681A467B68DB011344BF
:103FF00084331A46BB685B695361FB681B681A46C9
:104000007B68DB0113448433DA69FB681B6819465B
:104010007B68DB010B44843319464F4B1340CB6163
:10402000BB68DA69BB681B6AF96809680846796881
:10403000C901014484311343CB61FB681B681A46F4
:104040007B68DB01134484331A46BB685B6A936266
:10405000BB681B69002B02D10423FB611BE0BB681A
:104060001B69012B02D10323FB6114E0BB681B69B0
:10407000042B0BD0BB681B69022B07D0BB681B69E4
:10408000032B03D0BB681B69072B02D10223FB6102
:1040900001E00123FB61FB681B681A467B68DB01BA
:1040A00013448433DB6AFA68126811467A68D201D5
:1040B0000A44843203F0E023D362BB689B6AFA6946
:1040C00002FB03F31A04BB685968BB681B68CB1A70
:1040D000F96901FB03F30733F96809680846796851
:1040E000C901014484311343CB62FB681B681A4643
:1040F0007B68DB01134484331A6BFB681B68194629
:104100007B68DB010B4484331946144B13400B636B
:10411000FB681B681A467B68DB01134484331A462C
:10412000BB68DB6A1363FB681B681A467B68DB01AC
:10413000134484331B68FA68126811467A68D20106
:104140000A44843243F00103136000BF2437BD46A4
:104150005DF8047B704700BFF8F8FFFF00F8FFFF31
:1041600080B483B000AF78607B68002B69D0384B97
:104170001B6823F0E0027B681B68354913430B6022
:104180004FF0B043D3F884304FF0B04223F4803383
:10419000C2F884304FF0B043D3F880304FF0B042D3
:1041A00023F48033C2F880304FF0B0431B684FF0E7
:1041B000B04223F4803313604FF0B0435B684FF09C
:1041C000B04223F4803353607B685B6803F4803330
:1041D000002B09D04FF0B043D3F880304FF0B042FD
:1041E00043F48033C2F880307B685B6803F40033AB
:1041F000002B09D04FF0B043D3F884304FF0B042D9
:1042000043F48033C2F884307B685B6803F00103B9
:10421000002B07D04FF0B0431B684FF0B04243F47F
:10422000803313607B685B6803F00203002B09D0C6
:104230004FF0B0435B684FF0B04243F480335360BB
:1042400000E000BF0C37BD465DF8047B704700BF3F
:104250000048025880B400AF054B1B68044A43F085
:104260001003136000BFBD465DF8047B704700BFBC
:104270000048025880B584B000AF7860194BDB6805
:1042800003F00403042B0AD0164BDB6803F007038A
:104290007A689A4201D001231FE000231DE0114BF0
:1042A000DB6823F007020F497B681343CB60FEF7FE
:1042B00071F9F86009E0FEF76DF90246FB68D31A60
:1042C000B3F57A7F01D9012307E0064B5B6803F45D
:1042D0000053B3F5005FEED1002318461037BD46FA
:1042E00080BD00BF0048025880B58CB000AF786038
:1042F0007B68002B02D1012300F048BC7B681B685F
:1043000003F00103002B00F08880994B1B6903F038
:104310003803FB62964B9B6ABB62FB6A102B07D08B
:10432000FB6A182B11D1BB6A03F00303022B0CD1DB
:104330008F4B1B6803F40033002B6DD07B685B68E8
:10434000002B69D1012300F021BC7B685B68B3F5C9
:10435000803F06D1864B1B68854A43F48033136047
:104360002EE07B685B68002B0CD1814B1B68804A78
:1043700023F4803313607E4B1B687D4A23F4802333
:1043800013601DE07B685B68B3F5A02F0CD1784B00
:104390001B68774A43F480231360754B1B68744A8B
:1043A00043F4803313600BE0714B1B68704A23F4B5
:1043B000803313606E4B1B686D4A23F480231360B7
:1043C0007B685B68002B13D0FEF7E4F8786208E0A6
:1043D000FEF7E0F802467B6AD31A642B01D9032367
:1043E000D4E3634B1B6803F40033002BF0D014E0DC
:1043F000FEF7D0F8786208E0FEF7CCF802467B6A58
:10440000D31A642B01D90323C0E3594B1B6803F46F
:104410000033002BF0D100E000BF7B681B6803F085
:104420000203002B00F0CA80514B1B6903F03803D4
:104430003B624F4B9B6AFB613B6A002B07D03B6A98
:10444000182B56D1FB6903F00303002B51D1484BC5
:104450001B6803F00403002B05D07B68DB68002B8E
:1044600001D1012392E3424B1B6823F019027B68C0
:10447000DB683F4913430B60FEF78CF8786208E075
:10448000FEF788F802467B6AD31A022B01D9032370
:104490007CE3374B1B6803F00403002BF0D0FEF7DE
:1044A000A9F8034641F20302934217D87B681B69BF
:1044B000402B08D12E4B5B6823F47C332C4A43F409
:1044C000003353607AE02A4B5B6823F47C327B68CC
:1044D0001B691B03264913434B606FE0244B5B6849
:1044E00023F0FE427B681B691B06214913434B6086
:1044F00064E07B68DB68002B47D01D4B1B6823F012
:1045000019027B68DB681A4913430B60FEF742F817
:10451000786208E0FEF73EF802467B6AD31A022B67
:1045200001D9032332E3124B1B6803F00403002B71
:10453000F0D0FEF75FF8034641F20302934219D828
:104540007B681B69402B08D1094B5B6823F47C33E3
:10455000074A43F40033536030E0054B5B6823F4B3
:104560007C327B681B691B03014913434B6025E0C8
:10457000004402589A4B5B6823F0FE427B681B693B
:104580001B06974913434B6018E0954B1B68944AF0
:1045900023F001031360FDF7FDFF786208E0FDF7EB
:1045A000F9FF02467B6AD31A022B01D90323EDE2FD
:1045B0008B4B1B6803F00403002BF0D17B681B6856
:1045C00003F01003002B00F0A980854B1B6903F05A
:1045D0003803BB61824B9B6A7B61BB69082B07D0A8
:1045E000BB69182B3AD17B6903F00303012B35D14A
:1045F0007B4B1B6803F48073002B05D07B68DB6961
:10460000802B01D00123C1E2FDF7F4FF034641F204
:104610000302934217D87B681B6A202B08D1704B8A
:104620005B6823F0F8436E4A43F08043536075E0C3
:104630006B4B5B6823F0F8427B681B6A9B066849FA
:1046400013434B606AE0664BDB6823F07C527B6867
:104650001B6A1B0662491343CB605FE07B68DB6922
:10466000002B42D05E4B1B685D4A43F08003136011
:10467000FDF790FF786208E0FDF78CFF02467B6A49
:10468000D31A022B01D9032380E2554B1B6803F494
:104690008073002BF0D0FDF7ADFF034641F203021B
:1046A000934217D87B681B6A202B08D14C4B5B6860
:1046B00023F0F8434A4A43F0804353602EE0484BCE
:1046C0005B6823F0F8427B681B6A9B0644491343EE
:1046D0004B6023E0424BDB6823F07C527B681B6A13
:1046E0001B063F491343CB6018E03D4B1B683C4A17
:1046F00023F080031360FDF74DFF786208E0FDF7BB
:1047000049FF02467B6AD31A022B01D903233DE2FB
:10471000334B1B6803F48073002BF0D17B681B685C
:1047200003F00803002B36D07B685B69002B19D09F
:104730002B4B5B6F2A4A43F001035367FDF72AFFB7
:10474000786208E0FDF726FF02467B6AD31A022B47
:1047500001D903231AE2224B5B6F03F00203002B03
:10476000F0D018E01E4B5B6F1D4A23F00103536726
:10477000FDF710FF786208E0FDF70CFF02467B6A48
:10478000D31A022B01D9032300E2154B5B6F03F010
:104790000203002BF0D17B681B6803F02003002B81
:1047A00039D07B689B69002B1CD00D4B1B680C4AD1
:1047B00043F480531360FDF7EDFE786208E0FDF7E7
:1047C000E9FE02467B6AD31A022B01D90323DDE1FD
:1047D000034B1B6803F40053002BF0D01BE000BF19
:1047E000004402589B4B1B689A4A23F48053136081
:1047F000FDF7D0FE786208E0FDF7CCFE02467B6A4A
:10480000D31A022B01D90323C0E1924B1B6803F496
:104810000053002BF0D17B681B6803F00403002BCE
:1048200000F081808C4B1B688B4A43F480731360CB
:10483000FDF7B0FE786208E0FDF7ACFE02467B6A49
:10484000D31A642B01D90323A0E1834B1B6803F423
:104850008073002BF0D07B689B68012B06D17D4BC9
:104860001B6F7C4A43F0010313672DE07B689B6854
:10487000002B0CD1774B1B6F764A23F00103136793
:10488000744B1B6F734A23F0040313671CE07B68AF
:104890009B68052B0CD16F4B1B6F6E4A43F00403D2
:1048A00013676C4B1B6F6B4A43F0010313670BE0FC
:1048B000684B1B6F674A23F001031367654B1B6F3F
:1048C000644A23F0040313677B689B68002B15D0B0
:1048D000FDF760FE78620AE0FDF75CFE02467B6A47
:1048E000D31A41F28832934201D903234EE1594B46
:1048F0001B6F03F00203002BEED014E0FDF74AFE1D
:1049000078620AE0FDF746FE02467B6AD31A41F25E
:104910008832934201D9032338E14E4B1B6F03F0D9
:104920000203002BEED17B685B6A002B00F02D8127
:10493000484B1B6903F03803182B00F0BD807B68DF
:104940005B6A022B40F09E80424B1B68414A23F079
:1049500080731360FDF71EFE786208E0FDF71AFE13
:1049600002467B6AD31A022B01D903230EE1394B8D
:104970001B6803F00073002BF0D1364B9A6A374B5B
:1049800013407A68916A7A68D26A12010A433149FF
:1049900013438B627B681B6B013BC3F308027B688C
:1049A0005B6B013B5B029BB21A437B689B6B013BD9
:1049B0001B0403F4FE031A437B68DB6B013B1B06FD
:1049C00003F0FE43234913430B63224BDB6A214A66
:1049D00023F00103D3621F4B5A6B214B13407A68BB
:1049E000926CD2001B4913434B631A4BDB6A23F0D2
:1049F0000C027B681B6C17491343CB62154BDB6AB7
:104A000023F002027B685B6C12491343CB62114BAB
:104A1000DB6A104A43F48033D3620E4BDB6A0D4AE3
:104A200043F40033D3620B4BDB6A0A4A43F480231E
:104A3000D362084BDB6A074A43F00103D362054B9C
:104A40001B68044A43F080731360FDF7A3FD78628E
:104A500011E000BF00440258004802580CFCFFFF60
:104A60000700FFFFFDF796FD02467B6AD31A022B73
:104A700001D903238AE0474B1B6803F00073002B26
:104A8000F0D082E0434B1B68424A23F080731360EE
:104A9000FDF780FD786208E0FDF77CFD02467B6A49
:104AA000D31A022B01D9032370E03A4B1B6803F0A1
:104AB0000073002BF0D168E0364B9B6A3B61354BAD
:104AC0001B6BFB607B685B6A012B31D03B6903F099
:104AD00003027B689B6A9A422AD13B691B0903F057
:104AE0003F027B68DB6A9A4222D1FB68C3F308026B
:104AF0007B681B6B013B9A421AD1FB685B0A03F08F
:104B00007F027B685B6B013B9A4211D1FB681B0CF7
:104B100003F07F027B689B6B013B9A4208D1FB68E4
:104B20001B0E03F07F027B68DB6B013B9A4201D0D6
:104B300001232BE0174B5B6BDB08C3F30C033B61DA
:104B40007B689B6C3A699A421FD0124BDB6A114A10
:104B500023F00103D362FDF71DFD786200BFFDF76E
:104B600019FD02467B6A9342F9D00A4B5A6B0A4BF5
:104B700013407A68926CD200064913434B63054B8D
:104B8000DB6A044A43F00103D3620023184630373E
:104B9000BD4680BD004402580700FFFF80B586B0C7
:104BA00000AF786039607B68002B01D101239CE164
:104BB0008A4B1B6803F00F033A689A4210D9874B5F
:104BC0001B6823F00F0285493B6813430B60834B3E
:104BD0001B6803F00F033A689A4201D0012384E175
:104BE0007B681B6803F00403002B10D07B681A69F4
:104BF0007B4B9B6903F070039A4208D9784B9B6901
:104C000023F070027B681B69754913438B617B68D5
:104C10001B6803F00803002B10D07B685A69704BA7
:104C2000DB6903F070039A4208D96D4BDB6923F00E
:104C300070027B685B696A491343CB617B681B68C0
:104C400003F01003002B10D07B689A69644BDB697A
:104C500003F4E0639A4208D9614BDB6923F4E06214
:104C60007B689B695E491343CB617B681B6803F0DB
:104C70002003002B10D07B68DA69594B1B6A03F0C4
:104C800070039A4208D9564B1B6A23F070027B6866
:104C9000DB69534913430B627B681B6803F0020313
:104CA000002B10D07B68DA684D4B9B6903F00F0333
:104CB0009A4208D94A4B9B6923F00F027B68DB6854
:104CC000474913438B617B681B6803F00103002B8A
:104CD00055D0434B9B6923F470627B689B684049C5
:104CE00013438B617B685B68022B07D13C4B1B68CD
:104CF00003F40033002B21D10123F6E07B685B68CD
:104D0000032B07D1364B1B6803F00073002B15D122
:104D10000123EAE07B685B68012B07D1304B1B68FD
:104D200003F48073002B09D10123DEE02C4B1B68B8
:104D300003F00403002B01D10123D6E0284B1B69AB
:104D400023F007027B685B68254913430B61FDF77D
:104D500021FC78610AE0FDF71DFC02467B69D31A4D
:104D600041F28832934201D90323BEE01C4B1B69F8
:104D700003F038027B685B68DB009A42EBD17B680A
:104D80001B6803F00203002B10D07B68DA68144B19
:104D90009B6903F00F039A4208D2114B9B6923F0E1
:104DA0000F027B68DB680E4913438B610B4B1B685A
:104DB00003F00F033A689A4214D2084B1B6823F0A1
:104DC0000F0206493B6813430B60044B1B6803F05A
:104DD0000F033A689A4205D0012386E00020005272
:104DE000004402587B681B6803F00403002B10D0BA
:104DF0007B681A693F4B9B6903F070039A4208D2A3
:104E00003C4B9B6923F070027B681B693949134353
:104E10008B617B681B6803F00803002B10D07B6854
:104E20005A69344BDB6903F070039A4208D2314B64
:104E3000DB6923F070027B685B692E491343CB6109
:104E40007B681B6803F01003002B10D07B689A6905
:104E5000284BDB6903F4E0639A4208D2254BDB69F7
:104E600023F4E0627B689B6922491343CB617B6832
:104E70001B6803F02003002B10D07B68DA691D4B00
:104E80001B6A03F070039A4208D21A4B1B6A23F084
:104E900070027B68DB69174913430B6200F034F83A
:104EA0000246144B9B691B0A03F00F031249CB5CAB
:104EB00003F01F0322FA03F33B610E4B9B6903F0DF
:104EC0000F030D4AD35C03F01F033A6922FA03F380
:104ED0000A4A13600A4A3B6913600A4B1B6818466A
:104EE000FCF710FE0346FB73FB7B18461837BD46E4
:104EF00080BD00BF00440258B07E030804000020BB
:104F0000000000200800002080B489B000AFB34B3F
:104F10001B6903F03803182B00F2558101A252F8E7
:104F200023F000BF894F0008C7510008C75100088F
:104F3000C7510008C7510008C7510008C7510008F1
:104F4000C7510008AF4F0008C7510008C7510008FB
:104F5000C7510008C7510008C7510008C7510008D1
:104F6000C7510008B54F0008C7510008C7510008D5
:104F7000C7510008C7510008C7510008C7510008B1
:104F8000C7510008BB4F0008944B1B6803F0200377
:104F9000002B09D0914B1B68DB0803F00303904AF8
:104FA00022FA03F3BB6111E18D4BBB610EE18D4B26
:104FB000BB610BE18C4BBB6108E1884B9B6A03F042
:104FC00003037B61854B9B6A1B0903F03F033B6135
:104FD000824BDB6A03F00103FB60804B5B6BDB08F9
:104FE000C3F30C03FA6802FB03F307EE903AF8EE02
:104FF000677AC7ED027A3B69002B00F0E1807B699C
:10500000022B00F083807B69022B00F2A1807B6978
:10501000002B03D07B69012B56D099E06F4B1B68A6
:1050200003F02003002B2DD06C4B1B68DB0803F032
:1050300003036B4A22FA03F37B607B6807EE903A26
:10504000F8EE676A3B6907EE903AF8EE677A86EE0B
:10505000A77A624B1B6BC3F3080307EE903AF8EE96
:10506000676A97ED026ADFED615AC6EE257A76EE41
:10507000A77AF7EE006A77EEA67A67EE277AC7ED91
:10508000077A87E03B6907EE903AF8EE677ADFED42
:10509000586A86EEA77A514B1B6BC3F3080307EEE1
:1050A000903AF8EE676A97ED026ADFED505AC6EE65
:1050B000257A76EEA77AF7EE006A77EEA67A67EEA3
:1050C000277AC7ED077A65E03B6907EE903AF8EE7C
:1050D000677ADFED486A86EEA77A404B1B6BC3F315
:1050E000080307EE903AF8EE676A97ED026ADFED83
:1050F0003F5AC6EE257A76EEA77AF7EE006A77EE8B
:10510000A67A67EE277AC7ED077A43E03B6907EE98
:10511000903AF8EE677ADFED386A86EEA77A2F4B81
:105120001B6BC3F3080307EE903AF8EE676A97ED3E
:10513000026ADFED2E5AC6EE257A76EEA77AF7EEF2
:10514000006A77EEA67A67EE277AC7ED077A21E044
:105150003B6907EE903AF8EE677ADFED266A86EE55
:10516000A77A1E4B1B6BC3F3080307EE903AF8EEC9
:10517000676A97ED026ADFED1D5AC6EE257A76EE74
:10518000A77AF7EE006A77EEA67A67EE277AC7ED80
:10519000077A00BF114B1B6B5B0A03F07F030133DF
:1051A0003B603B6807EE903AB8EE677AD7ED076A46
:1051B000C6EE877AFCEEE77A17EE903ABB6105E01F
:1051C0000023BB6102E0074BBB6100BFBB6918460F
:1051D0002437BD465DF8047B704700BF0044025889
:1051E0000090D00300093D000024F40000000046B8
:1051F0000024744C0024744A0024744B80B582B09F
:1052000000AFFFF781FE0246104B9B691B0A03F0BB
:105210000F030F49CB5C03F01F0322FA03F37B60FB
:105220000A4B9B6903F00F03094AD35C03F01F0389
:105230007A6822FA03F3074A1360074A7B6813600F
:10524000044B1B6818460837BD4680BD0044025811
:10525000B07E0308040000200000002080B500AFED
:10526000FFF7CCFF0246064BDB691B0903F007037F
:105270000449CB5C03F01F0322FA03F3184680BDF8
:1052800000440258B07E030880B500AFFFF7B6FFB8
:105290000246064BDB691B0A03F007030449CB5C9B
:1052A00003F01F0322FA03F3184680BD004402589E
:1052B000B07E030880B483B000AF786039607B684B
:1052C0003F221A601A4B1B6903F007027B685A6081
:1052D000174B9B6903F470627B689A60144B9B695F
:1052E00003F00F027B68DA60114B9B6903F07002D8
:1052F0007B681A610E4BDB6903F070027B685A61B0
:105300000B4BDB6903F4E0627B689A61084B1B6A14
:1053100003F070027B68DA61064B1B6803F00F0232
:105320003B681A6000BF0C37BD465DF8047B7047D0
:1053300000440258002000522DE9B04FCAB000AF1F
:10534000C7F81401002387F82731002387F8263196
:10535000D7F81431D3E9002302F00064002554EAA1
:10536000050349D0D7F814319B6EB3F5401F2FD0F9
:10537000B3F5401F28D8B3F5001F1AD0B3F5001FAE
:1053800022D8002B03D0B3F5801F07D01CE0B84B08
:10539000DB6AB74A43F40033D3621AE0D7F814311A
:1053A00008330221184601F08FFC034687F82731A5
:1053B0000FE0D7F8143128330221184601F036FDEA
:1053C000034687F8273104E0012387F8273100E0FE
:1053D00000BF97F82731002B0AD1A54B1B6D23F492
:1053E0004011D7F814319B6EA14A0B43136503E0BB
:1053F00097F8273187F82631D7F81431D3E90023FD
:1054000002F480784FF0000958EA090347D0D7F832
:1054100014319B6D042B2AD801A252F823F000BF4F
:1054200035540008435400085954000877540008C4
:10543000775400088E4BDB6A8D4A43F40033D36205
:105440001AE0D7F8143108330021184601F03CFC6B
:10545000034687F827310FE0D7F8143128330021AD
:10546000184601F0E3FC034687F8273104E00123E6
:1054700087F8273100E000BF97F82731002B0AD1C9
:105480007B4B1B6D23F00701D7F814319B6D784AD5
:105490000B43136503E097F8273187F82631D7F8D7
:1054A0001431D3E9002302F4007A4FF0000B5AEADA
:1054B0000B034CD0D7F81431DB6DB3F5807F30D0BF
:1054C000B3F5807F29D8C02B2DD0C02B25D8802BB9
:1054D00018D0802B21D8002B02D0402B07D01CE005
:1054E000634BDB6A624A43F40033D3621CE0D7F8B3
:1054F000143108330021184601F0E6FB034687F813
:10550000273111E0D7F8143128330021184601F073
:105510008DFC034687F8273106E0012387F8273101
:1055200002E000BF00E000BF97F82731002B0AD14E
:105530004F4B1B6D23F4E071D7F81431DB6D4C4AEF
:105540000B43136503E097F8273187F82631D7F826
:105550001431D3E9002302F48063C7F80831002333
:10556000C7F80C31D7E942120B46134353D0D7F892
:105570001431D3F8A830B3F5000F35D0B3F5000FD0
:105580002ED8B3F5C00F31D0B3F5C00F28D8B3F57E
:10559000800F1AD0B3F5800F22D8002B03D0B3F5BB
:1055A000001F07D01CE0324BDB6A314A43F4003362
:1055B000D3621CE0D7F8143108330021184601F0FB
:1055C00083FB034687F8273111E0D7F814312833DD
:1055D0000021184601F02AFC034687F8273106E02F
:1055E000012387F8273102E000BF00E000BF97F8F1
:1055F0002731002B0BD11E4B9B6D23F46001D7F894
:105600001431D3F8A8301A4A0B43936503E097F896
:10561000273187F82631D7F81431D3E9002302F473
:105620000063C7F800310023C7F80431D7E94012FE
:105630000B46134356D0D7F81431D3F8AC30B3F13E
:10564000806F38D0B3F1806F31D8B3F1407F34D060
:10565000B3F1407F2BD8B3F1007F1DD0B3F1007FB1
:1056600025D8002B06D0B3F1807F0AD01FE000BF01
:1056700000440258A24BDB6AA14A43F40033D362D0
:105680001CE0D7F8143108330021184601F01CFB48
:10569000034687F8273111E0D7F814312833002169
:1056A000184601F0C3FB034687F8273106E00123C3
:1056B00087F8273102E000BF00E000BF97F82731EC
:1056C000002B0BD18E4B9B6D23F0E061D7F814318A
:1056D000D3F8AC308A4A0B43936503E097F827313F
:1056E00087F82631D7F81431D3E9002302F000738C
:1056F000C7F8F8300023C7F8FC30D7E93E120B4654
:1057000013433AD0D7F81431DB6C302B1FD0302B39
:1057100019D8202B0CD0202B15D8002B19D0102BEA
:1057200011D1774BDB6A764A43F40033D36211E040
:10573000D7F8143108330221184601F0C5FA0346A0
:1057400087F8273106E0012387F8273102E000BF00
:1057500000E000BF97F82731002B0AD1684BDB6CC3
:1057600023F03001D7F81431DB6C654A0B43D36466
:1057700003E097F8273187F82631D7F81431D3E9B9
:10578000002302F48053C7F8F0300023C7F8F43048
:10579000D7E93C120B46134351D0D7F814311B6E96
:1057A000B3F5804F35D0B3F5804F2ED8B3F5405FB9
:1057B00031D0B3F5405F28D8B3F5005F1AD0B3F508
:1057C000005F22D8002B03D0B3F5805F07D01CE028
:1057D0004B4BDB6A4A4A43F40033D3621CE0D7F8F0
:1057E000143108330021184601F06EFA034687F899
:1057F000273111E0D7F8143128330021184601F081
:1058000015FB034687F8273106E0012387F8273187
:1058100002E000BF00E000BF97F82731002B0AD15B
:10582000374B1B6D23F4E041D7F814311B6E344A1B
:105830000B43136503E097F8273187F82631D7F833
:105840001431D3E9002302F40053C7F8E8300023F1
:10585000C7F8EC30D7E93A120B46134356D0D7F8C5
:1058600014315B6EB3F5A02F33D0B3F5A02F2CD835
:10587000B3F5802F2FD0B3F5802F26D8B3F5403F56
:105880002BD0B3F5403F20D8B3F5003F12D0B3F58D
:10589000003F1AD8002B22D0B3F5803F15D1D7F89E
:1058A000143108330121184601F00EFA034687F837
:1058B000273115E0D7F8143128330121184601F0BB
:1058C000B5FA034687F827310AE0012387F8273124
:1058D00006E000BF04E000BF02E000BF00E000BF40
:1058E00097F82731002B0DD1054B1B6D23F4E021D8
:1058F000D7F814315B6E024A0B43136506E000BF14
:105900000044025897F8273187F82631D7F8143128
:10591000D3E9002302F48043C7F8E0300023C7F83E
:10592000E430D7E938120B46134355D0D7F8143179
:10593000D3F8B030B3F1A04F33D0B3F1A04F2CD88F
:10594000B3F1804F2FD0B3F1804F26D8B3F1405F31
:105950002BD0B3F1405F20D8B3F1005F12D0B3F188
:10596000005F1AD8002B22D0B3F1805F15D1D7F891
:10597000143108330121184601F0A6F9034687F8CF
:10598000273115E0D7F8143128330121184601F0EA
:105990004DFA034687F827310AE0012387F82731BB
:1059A00006E000BF04E000BF02E000BF00E000BF6F
:1059B00097F82731002B0BD1A34B9B6D23F0E041CF
:1059C000D7F81431D3F8B0309F4A0B43936503E006
:1059D00097F8273187F82631D7F81431D3E9002317
:1059E00002F40043C7F8D8300023C7F8DC30D7E909
:1059F00036120B46134337D0D7F814311B6FB3F16F
:105A0000005F0ED0B3F1005F16D8002B18D0B3F1B1
:105A1000805F11D18C4BDB6A8B4A43F40033D36235
:105A20000FE0D7F8143108330121184601F04CF982
:105A3000034687F8273104E0012387F8273100E087
:105A400000BF97F82731002B0AD17F4B1B6D23F045
:105A50004051D7F814311B6F7B4A0B43136503E0A9
:105A600097F8273187F82631D7F81431D3E9002386
:105A700002F08073C7F8D0300023C7F8D430D7E9DC
:105A800034120B46134339D0D7F814319B6C032BD7
:105A90001CD801A252F823F0D55A0008A95A0008D0
:105AA000B75A0008D55A0008674BDB6A664A43F4C8
:105AB0000033D3620FE0D7F81431083302211846BF
:105AC00001F002F9034687F8273104E0012387F843
:105AD000273100E000BF97F82731002B0AD15A4B3D
