:020000040800F2
:10000000000002209D440008B93C0008C13C0008E3
:10001000C93C0008D13C0008D93C000800000000A1
:10002000000000000000000000000000E13C0008AB
:10003000EF3C000800000000FD3C00080B3D0008FC
:10004000F1440008F1440008F1440008F1440008BC
:10005000F1440008F1440008F1440008F1440008AC
:10006000F1440008F1440008F1440008F14400089C
:10007000F1440008F1440008F1440008F14400088C
:10008000F1440008F1440008F1440008F14400087C
:10009000F1440008F1440008F1440008F14400086C
:1000A000F1440008F1440008F1440008F14400085C
:1000B000F1440008F1440008F1440008F14400084C
:1000C000F1440008F1440008F1440008F14400083C
:1000D000F1440008F1440008F1440008F14400082C
:1000E000F1440008F144000800000000F144000859
:1000F000F1440008F1440008F1440008F14400080C
:10010000F1440008F1440008F1440008F1440008FB
:10011000F1440008F1440008F1440008F1440008EB
:10012000F1440008F1440008F1440008F1440008DB
:10013000F1440008F1440008F1440008F1440008CB
:1001400000000000000000000000000000000000AF
:10015000F1440008F1440008F1440008F1440008AB
:10016000F1440008F1440008F1440008F14400089B
:10017000F1440008F1440008F144000800000000C8
:10018000F1440008F1440008F1440008F14400087B
:10019000F1440008F1440008F1440008F14400086B
:1001A000193D0008F1440008F1440008F14400083A
:1001B000F1440008F1440008F1440008F14400084B
:1001C000F1440008F1440008F1440008F14400083B
:1001D000F1440008F1440008F1440008F14400082B
:1001E000F1440008F1440008F1440008F14400081B
:1001F000F1440008F1440008F1440008F14400080B
:10020000F1440008F1440008F1440008F1440008FA
:10021000F1440008F14400082D3D0008F1440008B5
:10022000F1440008F1440008F14400080000000017
:10023000F1440008F144000800000000F144000807
:10024000F1440008F1440008F1440008F1440008BA
:10025000F1440008F1440008F1440008F1440008AA
:10026000F1440008F1440008F1440008F14400089A
:10027000F1440008F1440008F144000800000000C7
:10028000F1440008F1440008F144000800000000B7
:0802900000000000F144000829
:1002A00010B5054C237833B9044B13B10448AFF3B0
:1002B00000800123237010BDEC000020000000002E
:1002C0006040030808B5034B1BB103490348AFF373
:1002D000008008BD00000000F0000020604003081E
:1002E00010F8012B11F8013B012A28BF9A42F7D0E0
:1002F000D01A7047034613F8012B002AFBD1181AB5
:1003000001387047000000000000000000000000FD
:1003100001F0FF01102A2BDB10F0070F08D010F8B6
:10032000013B013A8B422DD010F0070F42B3F6D1BA
:10033000F0B441EA012141EA014122F007047FF0D3
:1003400000070023F0E80256083C85EA010586EA2A
:10035000010685FA47F5A3FA87F586FA47F6A5FA66
:1003600087F68EB9EED1F0BC01F0FF0102F0070272
:1003700032B110F8013B013A83EA010313B1F8D11D
:100380000020704701387047002D06BF35460338FE
:10039000073815F0010F07D1013015F4807F02BF37
:1003A000013015F4C03F0130F0BC0138704700BF88
:1003B00081F0004102E000BF83F0004330B54FEA16
:1003C00041044FEA430594EA050F08BF90EA020F83
:1003D0001FBF54EA000C55EA020C7FEA645C7FEA16
:1003E000655C00F0E2804FEA5454D4EB5555B8BF39
:1003F0006D420CDD2C4480EA020281EA030382EAAA
:10040000000083EA010180EA020281EA0303362D3B
:1004100088BF30BD11F0004F4FEA01314FF4801C0E
:100420004CEA113102D0404261EB410113F0004F20
:100430004FEA03334CEA133302D0524263EB4303D7
:1004400094EA050F00F0A780A4F10104D5F1200E75
:100450000DDB02FA0EFC22FA05F2801841F10001D0
:1004600003FA0EF2801843FA05F359410EE0A5F1A4
:1004700020050EF1200E012A03FA0EFC28BF4CF0D5
:10048000020C43FA05F3C01851EBE37101F000458B
:1004900007D54FF0000EDCF1000C7EEB00006EEB98
:1004A0000101B1F5801F1BD3B1F5001F0CD3490822
:1004B0005FEA30004FEA3C0C04F101044FEA445279
:1004C00012F5800F80F09A80BCF1004F08BF5FEA00
:1004D000500C50F1000041EB045141EA050130BDE0
:1004E0005FEA4C0C404141EB0101013C28BFB1F5F2
:1004F000801FE9D291F0000F04BF01460020B1FA3D
:1005000081F308BF2033A3F10B03B3F120020CDA0F
:100510000C3208DD02F1140CC2F10C0201FA0CF0ED
:1005200021FA02F10CE002F11402D8BFC2F1200C52
:1005300001FA02F120FA0CFCDCBF41EA0C01904008
:10054000E41AA2BF01EB0451294330BD6FEA040451
:100550001F3C1CDA0C340EDC04F11404C4F120023C
:1005600020FA04F001FA02F340EA030021FA04F34E
:1005700045EA030130BDC4F10C04C4F1200220FAA5
:1005800002F001FA04F340EA0300294630BD21FAE3
:1005900004F0294630BD94F0000F83F4801306BFA9
:1005A00081F480110134013D4EE77FEA645C18BF9D
:1005B0007FEA655C29D094EA050F08BF90EA020F34
:1005C00005D054EA000C04BF1946104630BD91EA2C
:1005D000030F1EBF0021002030BD5FEA545C05D12F
:1005E0004000494128BF41F0004130BD14F580046E
:1005F0003CBF01F5801130BD01F0004545F0FE41E2
:1006000041F470014FF0000030BD7FEA645C1ABF16
:10061000194610467FEA655C1CBF0B46024650EA4D
:10062000013406BF52EA033591EA030F41F4002179
:1006300030BD00BF90F0000F04BF0021704730B5FF
:100640004FF4806404F132044FF000054FF00001D4
:1006500050E700BF90F0000F04BF0021704730B595
:100660004FF4806404F1320410F0004548BF40426A
:100670004FF000013EE700BF42004FEAE2014FEABF
:1006800031014FEA02701FBF12F07F4393F07F4F9A
:1006900081F06051704732F07F4208BF704793F09D
:1006A0007F4F04BF41F40021704730B54FF46074B0
:1006B00001F0004521F000411CE700BF50EA0102B3
:1006C00008BF704730B54FF000050AE050EA01025C
:1006D00008BF704730B511F0004502D5404261EBCC
:1006E00041014FF4806404F132045FEA915C3FF40D
:1006F000D8AE4FF003025FEADC0C18BF03325FEAAA
:10070000DC0C18BF033202EBDC02C2F1200300FA5A
:1007100003FC20FA02F001FA03FE40EA0E0021FA7F
:1007200002F11444BDE600BF53B94AB9002908BF1D
:1007300000281CBF4FF0FF314FF0FF3000F088B9A8
:10074000ADF1080C6DE904CE00F006F8DDF804E028
:10075000DDE9022304B070472DE9F047089D0F46FC
:1007600004468C46002B48D18A42164661D9B2FA1B
:1007700082F34BB1C3F1200201FA03FC20FA02F22A
:100780009E4042EA0C0C9C404FEA164EB7B2BCFBAE
:10079000FEF1220C0EFB11CC42EA0C4201FB07F0E9
:1007A000904209D9B21801F1FF3C80F0EE809042EE
:1007B00040F2EB8002393244121AA4B2B2FBFEF0CE
:1007C0000EFB102244EA024400FB07F7A74209D9B6
:1007D000341900F1FF3280F0DA80A74240F2D7806E
:1007E0003444023840EA0140E41B00211DB1DC40E2
:1007F0000023C5E90043BDE8F0878B4206D90DB15F
:10080000C5E9000100210846BDE8F087B3FA83F18D
:10081000002948D1BB4202D3824200F20781841AE8
:1008200067EB030201209446002DE4D0C5E9004C9B
:10083000E1E7002A00F09280B2FA82F3002B40F048
:10084000A8808A1A4FEA164E1FFA86FC0121200C56
:10085000B2FBFEF70EFB172240EA02420CFB07F048
:10086000904207D9B21807F1FF3802D2904200F245
:10087000E2804746121AA4B2B2FBFEF00EFB102231
:1008800044EA02440CFB00FCA44507D9341900F1EA
:10089000FF3202D2A44500F2CB801046A4EB0C0438
:1008A00040EA0740A2E7C1F120068B4022FA06FC8D
:1008B0004CEA030C07FA01F420FA06F3F7404FEA7A
:1008C0001C49234300FA01F81FFA8CFEB7FBF9F02C
:1008D0001C0C09FB107744EA074400FB0EF7A74203
:1008E00002FA01F20AD91CEB040400F1FF3A80F08D
:1008F0009B80A74240F2988002386444E41B9FB278
:10090000B4FBF9F309FB134447EA044403FB0EFE6E
:10091000A64509D91CEB040403F1FF3780F082805F
:10092000A6457FD9023B644443EA0040A4EB0E0491
:10093000A0FB02E7BC427346B94663D360D05DB109
:10094000B8EB030264EB090404FA06F622FA01F399
:100950001E43CC40C5E9006400214CE7620848080A
:1009600042EAC1710B0C43EA00438AB242EA0342F5
:10097000B3FBF6F1E407B4463746B6461F23B0FB97
:10098000F6F0D21B41EA004161E7614614E71046E8
:1009900028E7C3F1200120FA01F29E4027FA01F175
:1009A0009F403A434FEA164E1FFA86FCB1FBFEF712
:1009B0000EFB1710110C41EA004107FB0CF88845AB
:1009C00004FA03F43AD9711807F1FF3001D28845CF
:1009D0001FD8A1EB0801B1FBFEF808FB0CF70EFBDA
:1009E000181192B242EA0142BA422FD2B21808F16B
:1009F000FF31C6D2BA42C4D2A8F102013244C0E7E4
:100A0000F0459CD2BEEB020367EB0C070138B946F8
:100A100095E7A6EB08084144B81EB1FBFEF808FBB9
:100A20000CF7DCE73B467FE7504667E70846FBE606
:100A30003444023832E7023F32441BE7A1EB08019D
:100A40003846B1FBFEF808FB0CF7C8E7414698E7CB
:100A5000704700BF80B586B000AF78600123BB60EF
:100A60001023FB6001233B6100237B6107F1080336
:100A70004FF6FF721946786808F0DEFA012003F09D
:100A800095FD0223BB601023FB6001233B61002323
:100A90007B6107F108034FF6FF721946786808F08A
:100AA000CBFA0323BB601023FB6002233B610023CE
:100AB0007B6107F108034FF6FF721946786808F06A
:100AC000BBFA0423BB601023FB6001233B614FF49E
:100AD0000C737B6107F108034FF6FF7219467868C3
:100AE00008F0AAFA40F62811786808F0DAFA00BF90
:100AF0001837BD4680BD80B483B000AF78603960E0
:100B00003B6818460C37BD465DF8047B7047000013
:100B100080B582B000AF87ED010AC7ED000A97EDFE
:100B2000017AD7ED007AC7EE276ADFED0A0AB0EE48
:100B3000660A32F081F8F0EE407AB7EE007A77EE8E
:100B4000677A9FED057A67EE877AB0EE670A083715
:100B5000BD4680BD5BBA423EC42A2D4780B500AF7A
:100B60000021024809F03EF800BF80BDFC0D0020C6
:100B700080B400AF044B1B685B6A5B085BB218462D
:100B8000BD465DF8047B7047FC0D002080B500AFCA
:100B90001021054804F010FF0346002B0CBF012371
:100BA0000023DBB2184680BD0004025880B500AFB8
:100BB0000021024808F062FE00BF80BD940E0020B4
:100BC00080B483B000AF0346FB71054B1B68FA7914
:100BD0005A6300BF0C37BD465DF8047B704700BF09
:100BE000940E002080B400AF044B1B685B6BDBB23B
:100BF0001846BD465DF8047B704700BF940E002088
:100C000080B483B000AF78607B6818460C37BD466F
:100C10005DF8047B704780B483B000AF78607B6878
:100C200018460C37BD465DF8047B704780B582B02E
:100C300000AF78607B689B68002B05D07B689B6861
:100C400078687968032298477B6818460837BD465C
:100C500080BD80B483B000AF78607B689B68002B58
:100C60000CBF01230023DBB218460C37BD465DF8EC
:100C7000047B704780B582B000AF78607B6818460F
:100C8000FFF7D4FF7B6818460837BD4680BD80B5A6
:100C900082B000AF78607B681846FFF7C7FF7B68BB
:100CA00018460837BD4680BD80B582B000AF786079
:100CB00039607B683A681146184600F018FE7B6878
:100CC00003F110023B6810331946104600F03AFE5B
:100CD0007B6803F120023B6820331946104600F080
:100CE00031FE7B6803F130023B6830331946104611
:100CF00000F028FE7B6818460837BD4680BD80B5E9
:100D000082B000AF78607B6830331846FFF7BFFFD2
:100D10007B6820331846FFF7BAFF7B68103318460C
:100D2000FFF7B5FF7B681846FFF7A4FF7B681846FE
:100D30000837BD4680BD80B582B000AF78603960AD
:100D40007B6800221A607B6800225A607B68083347
:100D500039681846FFF7A8FF7B68002283F848200F
:100D60007B6818460837BD4680BD80B582B000AFAD
:100D7000786039603A687B681146184600F00DFECD
:100D80003B6803F110027B6810331146184600F0EF
:100D90001FFE3B6803F120027B6820331146184692
:100DA00000F016FE3B6803F130027B6830331146D9
:100DB000184600F00DFE7B6818460837BD4680BD1A
:100DC00080B582B000AF786039607B6808333968DD
:100DD0001846FFF7CAFF00BF0837BD4680BD80B583
:100DE00092B000AF78600B46FB701346BB70BB78C7
:100DF000002B25D07B685B68B3F57A7F04D87B68CD
:100E00005B685A1C7B685A607B685B68B3F57A7FC5
:100E100012D17B6803F1280207F138031146184606
:100E200000F090FD07F13803184600F0ECFD07F1E3
:100E300038031846FFF72BFF7B6800221A606DE02D
:100E40007B685B680A2B1BD97B685B68B3F5C87F3E
:100E500016D27B6803F1180207F1280311461846E1
:100E600000F070FD07F12803184600F0CCFD7B6808
:100E700000221A6007F128031846FFF708FF4AE02E
:100E80007B6893F9483097F903209A421FD07B681A
:100E900003F1080207F118031146184600F027FD78
:100EA000FA787B6893F94830DBB2D31ADBB25AB2D6
:100EB00007F118031146184600F0BBFD7B680022BD
:100EC0001A6007F118031846FFF7D4FE23E07B6889
:100ED0001B6841F28832934204D87B681B685A1C15
:100EE0007B681A607B681B6841F28832934212D19A
:100EF0007B6803F1380207F108031146184600F039
:100F000021FD07F10803184600F07DFD07F10803F5
:100F10001846FFF7BCFE7B6800225A607B68FA78AF
:100F200083F8482000BF4837BD4680BD80B400AF7D
:100F300000BFBD465DF8047B704780B400AF00BFC2
:100F4000BD465DF8047B704780B500AF01F01EFB25
:100F500007480AF09FFFFFF729FEFFF7FFFD00F0AB
:100F600009F803480BF00EF92EF00AFB00BFF6E774
:100F70004802002090B591B000AF0023FB633EE033
:100F8000FB6B1946AE4804F001F90346002B0BD069
:100F9000F96B07F128033A46A94803F07DFF0346A1
:100FA000002B01D1012300E00023002B24D007F106
:100FB00028033B633B6B5B7903F00103DBB2002B3F
:100FC0001AD03B6B5B7903F00203DBB2002B13D02A
:100FD0009C4B1C68FB6B19469B4800F0A9FD03461F
:100FE0001C603B6B1C6823461C46FB6B19469748EC
:100FF00000F0ADFD03461C60FB6B0133FB63FB6B34
:101000000B2BBDDD8F4B1C6800218F4800F090FD3D
:1010100003461B68E31AB3F57A7F0BD3894B1C6830
:101020000121894800F084FD03461B68E31AB3F5EB
:101030007A7F01D2012300E00023002B29D0844ACB
:1010400092F8203043F0100382F820307D4B1C686A
:1010500000217D4800F06CFD03461B68E31A40F256
:10106000E73293428CBF01230023DBB21946774855
:1010700000F06DFD034693ED007ADFED766AC7EE72
:10108000267A9FED757A67EE877A714BC3ED047A05
:1010900006E06F4A92F8203023F0100382F82030E7
:1010A000684B1C680221684800F042FD03461B683B
:1010B000E31AB3F57A7F0BD3624B1C6803216248B5
:1010C00000F036FD03461B68E31AB3F57A7F01D2C0
:1010D000012300E00023002B28D05D4A92F8203045
:1010E00043F0080382F82030564B1C680221564812
:1010F00000F01EFD03461B68E31AB3F57A7F01D2A8
:10110000022300E003231946504800F020FD034667
:1011100093ED007ADFED4F6AC7EE267A9FED4E7AA7
:1011200067EE877A4A4BC3ED037A06E0484A92F8A5
:10113000203023F0080382F82030424B1C68042141
:10114000414800F0F5FC03461B68E31AB3F57A7FCB
:101150000BD33C4B1C6805213B4800F0E9FC0346DF
:101160001B68E31AB3F57A7F01D2012300E0002364
:10117000002B28D0364A92F8203043F0200382F822
:101180002030304B1C6804212F4800F0D1FC03466E
:101190001B68E31AB3F57A7F01D2042300E005232C
:1011A00019462A4800F0D3FC034693ED007ADFEDA0
:1011B000296AC7EE267A9FED287A67EE877A244B54
:1011C000C3ED057A06E0224A92F8203023F020038E
:1011D00082F820301B4B1C6806211B4800F0A8FC3D
:1011E00003461B68E31A41F2873293420CD9154B30
:1011F0001C680721144800F09BFC03461B68E31A97
:1012000041F28732934201D8012300E00023002BF2
:101210004BD00F4A92F8203043F0040382F820307C
:10122000084B1C680621084800F082FC03461B6836
:10123000E31A41F28732934210D806230FE000BF31
:10124000500B0020C0020020C4020020F402002045
:101250004802002000003443DB0F494007231946B1
:10126000604800F074FC03461B687B635E4BBB6305
:101270005E4B93F82930002B03D15C4B9B69BB6319
:1012800007E05A4B93F82930012B02D1574BDB6909
:10129000BB63D7ED0E0A97ED0D0AFFF739FCF0EEB0
:1012A000407A524BC3ED027A06E0504A92F8203061
:1012B00023F0040382F820304D4B1C6808214D4870
:1012C00000F036FC03461B68E31A41F28732934272
:1012D0000CD9474B1C680921464800F029FC0346FD
:1012E0001B68E31A41F28732934201D8012300E0E0
:1012F0000023002B25D03D4A92F8203043F0010313
:1013000082F820303A4B1C6808213A4800F010FC63
:1013100003461B68E31A41F28732934201D808233F
:1013200000E0092319462F4800F011FC0346D3EDD5
:10133000007A9FED317A67EE877A2C4BC3ED007A05
:1013400006E02A4A92F8203023F0010382F8203088
:10135000274B1C680A21274800F0EAFB03461B685C
:10136000E31A41F2873293420CD9214B1C680B21BE
:10137000204800F0DDFB03461B68E31A41F2873288
:10138000934201D8012300E00023002B1FD0174A0D
:1013900092F8203043F0020382F82030144B1C688E
:1013A0000A21144800F0C4FB03461B68E31A41F20B
:1013B0008732934201D80A2300E00B2319460948DB
:1013C00000F0C5FB03461B68084A536006E0074A65
:1013D00092F8203023F0020382F8203000BF443717
:1013E000BD4690BDF402002080E6C54748020020BB
:1013F000C0020020C40200206666664098B500AFB7
:101400002D4B1B6801332C4A13602C4B93F828306A
:10141000002B0ED1284B1B68B3F5FA7F0CBF0123BC
:101420000023DBB2002B1BD0244B012283F82820A1
:1014300016E0224B93F82830012B11D1204B1B686A
:10144000002B08D11D4B022283F828201C4B4FF49F
:101450007A721A6004E01A4B1B68013B184A136049
:1014600001F0BAFA01202AF00DFFFFF781FB0346D5
:101470001C46FFF78BFB03461A4621461148FFF72F
:10148000AEFC114B1B6801330F4A13600E4B1B68F7
:10149000B3F57A7F0CBF01230023DBB2002B08D009
:1014A000094B00221A60072208494FF4806001F0BE
:1014B00007F900BF98BD00BFC0020020480200200D
:1014C0006C0000207402002024030020484303081D
:1014D00080B584B000AF0346FB71FFF783FB034682
:1014E000FB60FB68104A82FB03129210DB17D31AD1
:1014F000013397F9072002FB03F3FA681344FB60FA
:10150000FB68002B02DA0023FB6004E0FB68FF2B82
:1015100001DDFF23FB60FB68DBB21846FFF750FBE1
:1015200000BF1037BD4680BD6766666680B500AFF8
:10153000044B032283F8282003490448FFF740FCAA
:1015400000BF80BD48020020480100207402002036
:1015500080B500AF064B074A5A62054B052283F857
:10156000282005490548FFF72BFC00BF80BD00BFC0
:10157000480200200C000020C80100207402002056
:1015800080B485B000AF0346FB71164B93F8293049
:10159000FB6097F90730002B0DDDFB68012B05DCA4
:1015A000FB680133FB60FB68DBB200E000230D4AFF
:1015B00082F8293010E097F90730002B0CDAFB682D
:1015C000002B05DDFB68013BFB60FB68DBB200E044
:1015D0000223044A82F8293000BF1437BD465DF863
:1015E000047B70474802002080B500AF0B4B93F896
:1015F0002930022B08D1094B022283F82820084900
:101600000848FFF7DDFB07E0044B042283F828209D
:1016100005490448FFF7D4FB00BF80BD4802002005
:1016200008010020740200208801002080B483B0EB
:1016300000AF0346FB711A4B93F82930002B12D1EF
:10164000174B93ED067A97F9072013469B00134436
:101650005B0007EE903AF8EEE77A77EE277A104BC8
:10166000C3ED067A16E00E4B93F82930012B11D109
:101670000B4B93ED077A97F9072013469B00134411
:101680005B0007EE903AF8EEE77A77EE277A044BA4
:10169000C3ED077A00BF0C37BD465DF8047B704789
:1016A0004802002080B500AF044B022283F82820B6
:1016B00003490448FFF784FB00BF80BD48020020B7
:1016C000080100207402002080B485B000AF0346FA
:1016D000FB711A4B5B6A5B7AFB6097F90730002B52
:1016E00011DD164B5B6A1B7A013BFA689A4205DAF8
:1016F000FB680133FB60FB68DAB200E000220F4BAD
:101700005B6A5A7214E097F90730002B10DAFB6815
:10171000002B05DDFB68013BFB60FB68DBB204E0EE
:10172000064B5B6A1B7A013BDBB2044A526A537276
:1017300000BF1437BD465DF8047B704748020020A7
:1017400080B500AF044B5B6ADB68034A526A527A89
:101750001046984700BF80BD4802002080B500AF0A
:10176000044B022283F8282003490448FFF728FB92
:1017700000BF80BD48020020080100207402002044
:1017800080B500AF044B022283F8282003490448A7
:10179000FFF716FB00BF80BD4802002008010020B3
:1017A0007402002080B483B000AF0346FB71FB7964
:1017B000022B0ED0022B10DC002B02D0012B04D008
:1017C0000BE0094B094A5A6207E0074B084A5A6284
:1017D00003E0054B074A5A6200BF00BF0C37BD4605
:1017E0005DF8047B704700BF480200202400002001
:1017F0003C0000205C00002080B582B000AF0346B2
:10180000FB71FB79002B02D0012B05D009E00B4BBB
:10181000012283F82A2004E0084B002283F82A20C2
:1018200000BF064B022283F8282005490548FFF730
:10183000C7FA00BF0837BD4680BD00BF4802002080
:10184000080100207402002080B582B000AF03467A
:10185000FB71FB79002B02D0012B05D009E00B4B6B
:10186000002283F82B2004E0084B012283F82B2070
:1018700000BF064B022283F8282005490548FFF7E0
:101880009FFA00BF0837BD4680BD00BF4802002058
:10189000080100207402002080B582B000AF03462A
:1018A000FB71064B022283F8282005490548FFF703
:1018B00087FA00BF0837BD4680BD00BF4802002040
:1018C000080100207402002080B483B000AF78606B
:1018D0007B681A460023136053607B6800229A607D
:1018E0007B6818460C37BD465DF8047B704780B5B1
:1018F00082B000AF786039607B681A4600231360BD
:10190000536093607B681846FFF7DEFF7B68002218
:10191000DA60386800F02AF90346002B0DD03B68E6
:101920009B6878683968022298473B68DA687B6868
:10193000DA603B689A687B689A607B68184608376B
:10194000BD4680BD80B582B000AF786039607B68ED
:101950001A4600231360536093607B681846FFF7B4
:10196000B3FF7B680022DA60386800F00FF90346A5
:10197000002B0DD03B689B68786839680222984735
:101980003B68DA687B68DA603B689A687B689A60D3
:101990007B6818460837BD4680BD80B586B000AF6D
:1019A0007860396007F1080339681846FFF79FFF30
:1019B00007F108037968184600F0F8F807F1080302
:1019C0001846FFF757F97B6818461837BD4680BDA3
:1019D00080B586B000AF7860396007F108033968D8
:1019E0001846FFF7AFFF07F108037968184600F0C3
:1019F000FEF807F108031846FFF749F97B68184617
:101A00001837BD4680BD80B582B000AF78607B6876
:101A10001846FFF71EF90346002B01D031F0E4F819
:101A20007B68DB687A681046984700BF0837BD4678
:101A300080BDB0B582B000AF78600B46FB707B68AC
:101A40001846FFF706F90346002B01D031F0CCF819
:101A50007B68DC687D68FB1C184600F0E9F80346EB
:101A600019462846A04700BF0837BD46B0BD000054
:101A700090B583B000AF786039607B681A46002368
:101A80001360536093607B681846FFF71DFF7B6807
:101A90000022DA60386800F0D6F80346002B0ED03A
:101AA0007C68386800F0DFF803461946204600F0ED
:101AB000E5F87B68044ADA607B68044A9A607B68D0
:101AC00018460C37BD4690BDA11C0008CB1C000871
:101AD00090B583B000AF786039607B681A46002308
:101AE0001360536093607B681846FFF7EDFE7B68D8
:101AF0000022DA60386800F007F90346002B0ED0A8
:101B00007C68386800F010F903461946204600F05A
:101B100016F97B68044ADA607B68044A9A607B683D
:101B200018460C37BD4690BD631D0008811D000896
:101B300080B483B000AF786039603B689B007A68FE
:101B4000134418460C37BD465DF8047B704780B4DB
:101B500083B000AF786039603B689B007A681344BB
:101B600018460C37BD465DF8047B704780B582B0DF
:101B700000AF78607B681846FFF76BF8034683F088
:101B80000103DBB218460837BD4680BD80B582B080
:101B900000AF78607B681846FFF75BF8034683F078
:101BA0000103DBB218460837BD4680BD80B582B060
:101BB00000AF786039607B683A681146184600F0DB
:101BC000FEF87B6803F108023B68083319461046AB
:101BD00000F01CF97B6803F10C023B680C331946DA
:101BE000104600F032F900BF0837BD4680BD80B511
:101BF00082B000AF786039607B683A681146184659
:101C000000F0DDF87B6803F108023B6808331946F1
:101C1000104600F0FBF87B6803F10C023B680C33C4
:101C20001946104600F030F900BF0837BD4680BDA8
:101C300080B483B000AF78607B6818460C37BD462F
:101C40005DF8047B704780B483B000AF78607B6838
:101C5000002B14BF01230023DBB218460C37BD460E
:101C60005DF8047B704780B483B000AF78607B6818
:101C700018460C37BD465DF8047B704790B583B0BD
:101C800000AF786039603868FFF7EDFF0346224601
:101C90001946786800F017F900BF0C37BD4690BDB3
:101CA00090B583B000AF78603960786800F023F9B0
:101CB00004463868FFF7BCFF03461946204600F08B
:101CC0002AF900BF0C37BD4690BD90B585B000AF76
:101CD000F860B9601346FB71FB79012B09D1B86834
:101CE00000F009F90446F86800F02BF903461C607F
:101CF00005E0FB791A46B968F86800F02FF900236F
:101D000018461437BD4690BD80B483B000AF7860EC
:101D10007B68002B14BF01230023DBB218460C376D
:101D2000BD465DF8047B704780B483B000AF786037
:101D30007B6818460C37BD465DF8047B704790B54C
:101D400083B000AF786039603868FFF7EDFF034675
:101D500022461946786800F03BF900BF0C37BD46B3
:101D600090BD80B582B000AF7860786800F048F927
:101D70000346184600F054F900BF0837BD4680BD41
:101D800090B585B000AFF860B9601346FB71FB7980
:101D9000012B09D1B86800F033F90446F86800F067
:101DA0004FF903461C6005E0FB791A46B968F868EC
:101DB00000F052F9002318461437BD4690BD80B597
:101DC00084B000AF78603960786800F07FF902462F
:101DD00007F1080392E8030083E80300386800F085
:101DE00075F902467B6892E8030083E8030007F177
:101DF0000803184600F06AF902463B6892E80300BF
:101E000083E8030000BF1037BD4680BD80B584B0B5
:101E100000AF78603960786800F063F903461B68AA
:101E2000FB60386800F05DF903461A687B681A6049
:101E300007F10C03184600F054F903461A683B6892
:101E40001A6000BF1037BD4680BD80B584B000AFBA
:101E500078603960786800F04FF903461B68FB60D2
:101E6000386800F049F903461A687B681A6007F180
:101E70000C03184600F040F903461A683B681A60E4
:101E800000BF1037BD4680BD80B584B000AF78601C
:101E90003960786800F03BF903461B68FB603868DE
:101EA00000F035F903461A687B681A6007F10C03E5
:101EB000184600F02CF903461A683B681A6000BF08
:101EC0001037BD4680BD90B585B000AFF860B960F1
:101ED0003A71F868FEF794FE034619460420FEF7AF
:101EE0000AFE0446B868FFF7BEFE0346236000BF43
:101EF0001437BD4690BD80B584B000AF7860786877
:101F000000F010F9F860F86800F018F90346184678
:101F10001037BD4680BDB0B582B000AF7860396083
:101F2000786800F016F904463868FFF781FE03462A
:101F30001A462146284600F017F900BF0837BD466B
:101F4000B0BD80B582B000AF78607868FEF758FE0B
:101F5000034618460837BD4680BD000090B585B0E1
:101F600000AFF860B9601346FB71FB79032B2AD8E8
:101F700001A252F823F000BF891F0008971F000834
:101F8000AB1F0008BD1F0008F86800F004F9034605
:101F900000221A6017E0B868FFF7ADFF0446F86842
:101FA000FFF7CFFF03461C600DE0B868FFF7A3FF03
:101FB00003461946F86800F0FAF804E02146F8688C
:101FC00000F007F900BF002318461437BD4690BD46
:101FD00090B585B000AFF860B9603A71F868FEF767
:101FE0000FFE034619460420FEF785FD0446B86837
:101FF000FFF79AFE0346236000BF1437BD4690BD2D
:1020000080B584B000AF7860786800F0EEF8F860D2
:10201000F86800F0F6F8034618461037BD4680BD54
:1020200090B583B000AF7860786800F0F5F80346AB
:102030001946204600F0FBF800BF0C37BD4690BDA6
:1020400080B582B000AF78607868FEF7D9FD0346AE
:1020500018460837BD4680BD90B585B000AFF86022
:10206000B9601346FB71FB79032B2AD801A252F801
:1020700023F000BF8520000893200008A720000857
:10208000B9200008F86800F086F8034600221A60BC
:1020900017E0B868FFF7B4FF0446F868FFF7D0FF11
:1020A00003461C600DE0B868FFF7AAFF0346194617
:1020B000F86800F0CBF804E02146F86800F0D8F8A2
:1020C00000BF002318461437BD4690BD80B483B0CE
:1020D00000AF78607B6818460C37BD465DF8047B1E
:1020E000704780B483B000AF78607B6818460C37C7
:1020F000BD465DF8047B704780B483B000AF786064
:102100007B6818460C37BD465DF8047B704780B489
:1021100083B000AF78607B6818460C37BD465DF829
:10212000047B704780B582B000AF78607868FEF7B6
:1021300072FD034618460837BD4680BD80B483B0A3
:1021400000AF78607B6818460C37BD465DF8047BAD
:10215000704780B483B000AF78607B6818460C3756
:10216000BD465DF8047B704790B585B000AF38730D
:10217000B9607A60B868FFF7ECFF03461C687868BE
:10218000FFF756FD034693F900301846A04700BFFD
:102190001437BD4690BD80B582B000AF78607868D6
:1021A000FEF72EFD034618460837BD4680BD90B5A4
:1021B00083B000AF78603960386800F065F8034696
:1021C00022461946786800F06AF800BF0C37BD4611
:1021D00090BD80B582B000AF78603970786800F04B
:1021E00077F800BF0837BD4680BD80B582B000AF2C
:1021F00078607868FEF70FFD034618460837BD463D
:1022000080BD80B483B000AF78607B6818460C371F
:10221000BD465DF8047B704780B483B000AF786042
:102220007B6818460C37BD465DF8047B704780B567
:1022300082B000AF387139603868FFF7EDFF0346B0
:102240001B68984700BF0837BD4680BD90B583B076
:1022500000AF78603960386800F046F803462246DF
:102260001946786800F04BF800BF0C37BD4690BDAA
:1022700080B582B000AF78603970786800F058F8A7
:1022800000BF0837BD4680BD80B483B000AF786022
:102290007B6818460C37BD465DF8047B704790B5E7
:1022A00085B000AFF860B9603A71F868FEF7A8FC35
:1022B000034619460420FEF71EFC0446B868FFF7E3
:1022C000E3FF03461B68236000BF1437BD4690BD83
:1022D00080B582B000AF78607868FEF791FC034665
:1022E00018460837BD4680BD80B483B000AF786023
:1022F0007B6818460C37BD465DF8047B704790B587
:1023000085B000AFF860B9603A71F868FEF778FC04
:10231000034619460420FEF7EEFB0446B868FFF7B3
:10232000E3FF03461B68236000BF1437BD4690BD22
:1023300080B582B000AF78607868FEF761FC034634
:1023400018460837BD4680BD80B500AF2A492B48E6
:10235000FFF78EFB2A492B48FFF7BAFB2A492B4887
:10236000FFF7B6FB2A492B48FFF7B2FB2A492B4857
:10237000FFF77EFB2A492B48FFF7AAFB2A492B4887
:10238000FFF7A6FB22492A48FFF7A2FB29492A4862
:10239000FFF76EFB29492A48FFF79AFB2249294893
:1023A000FFF796FB1A492848FFF792FB2749284870
:1023B000FFF75EFB27492848FFF78AFB2749284893
:1023C000FFF786FB27492848FFF782FB1F4927486C
:1023D000FFF74EFB1F492648FFF77AFB1F492548A8
:1023E000FFF776FB0A492448FFF772FB03492348AD
:1023F000FEF7A1FC00BF80BDD11400080801002039
:102400002D15000818010020511500082801002092
:102410003B0F00083801002081150008480100200A
:10242000E9150008580100202D0F00086801002060
:10243000780100202D16000888010020A51600084C
:1024400098010020A8010020B8010020C91600084A
:10245000C801002041170008D80100205D170008BE
:10246000E801002081170008F80100200802002080
:1024700018020020280200203802002074020020E8
:1024800080B582B000AF78607B6808331846FEF7ED
:1024900036FC7B6818460837BD4680BD80B500AF66
:1024A0000948FFF7EDFF0948FEF729FC0848FEF749
:1024B00026FC0848FEF723FC0748FEF720FC0748E7
:1024C000FEF71DFC00BF80BD740200200802002042
:1024D000C8010020880100204801002008010020D8
:1024E00080B500AFFFF730FF80BD80B500AFFFF7CC
:1024F000D5FF80BD80B582B000AF78607B680022D8
:102500001A70786800F005F87B6818460837BD46F1
:1025100080BD80B483B000AF78607B6800225A60D1
:102520007A687B689A607A687B68DA607B680022E8
:102530001A6100BF0C37BD465DF8047B704780B45C
:1025400085B000AF78607B68FB607B681846143705
:10255000BD465DF8047B704780B582B000AF7860FF
:102560007B68184600F0ECF87B6818460837BD46D3
:1025700080BD80B582B000AF78607B681846FFF7F9
:10258000EBFF7B6818460837BD4680BD80B588B034
:1025900000AF4FF080433B600723FB600223BB602A
:1025A0006FF060437B6111233B610023BB6100231B
:1025B0007B603B461946414802F072FB19233B61A0
:1025C0000123BB6101237B603B4619463B4802F077
:1025D00067FB12233B610223BB6102237B603B4606
:1025E0001946364802F05CFB1A233B610323BB61AA
:1025F00003237B603B461946304802F051FB13230E
:102600003B610423BB6104237B603B4619462B4896
:1026100002F046FB1B233B610523BB6105237B6066
:102620003B461946254802F03BFB21233B6106232C
:10263000BB6106237B603B461946204802F030FB15
:1026400029233B610723BB6107237B603B46194677
:102650001A4802F025FB41233B610823BB61082394
:102660007B603B461946154802F01AFB49233B6143
:102670000923BB6109237B603B4619460F4802F0E2
:102680000FFB42233B610A23BB610A237B603B466D
:1026900019460A4802F004FB4A233B610B23BB6145
:1026A0000B237B603B461946044802F0F9FA0348C5
:1026B00002F06CFB00BF2037BD4680BD500B0020F0
:1026C00080B58CB000AF03463960FB8013467B7148
:1026D0007B79082B01D900232CE0184802F09CFDDF
:1026E0000346002B0CBF01230023DBB2002B01D0DB
:1026F00000231FE0FB88FB604FF080433B61002319
:102700007B617B79BB610023FB6100233B6200237B
:102710007B620023BB620023FB6207F10C033A6873
:102720001946064802F05DFB0346002B0CBF01234F
:102730000023DBB218463037BD4680BD500B002069
:1027400080B584B000AF78607B68FB60FB68BB60DD
:102750007B68184600F01FF87B6804331846FFF7C3
:10276000C9FE7B6818461037BD4680BD80B582B073
:1027700000AF7860786800F039F803461946786849
:1027800000F014F87B681846FFF7D9FE7B681846FE
:102790000837BD4680BD80B483B000AF78607B68E9
:1027A00018460C37BD465DF8047B704780B584B091
:1027B00000AF7860396011E0386800F023F8034614
:1027C00019467868FFF7F2FF386800F027F8F860DC
:1027D0003968786800F02EF8FB683B603B68002B96
:1027E000EAD100BF00BF1037BD4680BD80B582B0C2
:1027F00000AF7860786800F02EF803461846083776
:10280000BD4680BD80B483B000AF78607B68DB6874
:1028100018460C37BD465DF8047B704780B483B022
:1028200000AF78607B689B6818460C37BD465DF842
:10283000047B704780B582B000AF7860396039683A
:10284000786800F022F83968786800F035F800BF41
:102850000837BD4680BD80B483B000AF78607B6828
:102860009B6818460C37BD465DF8047B704780B501
:1028700082B000AF78607B681033184600F041F8F2
:10288000034618460837BD4680BD90B585B000AFF9
:1028900078603960786800F040F804463868FFF7DF
:1028A000E6FF0346FB60BC60F86800F04CF800BF30
:1028B00000BF1437BD4690BD80B588B000AF7860CA
:1028C0003960786800F029F80346FB613B68BB611A
:1028D00001237B61FB693B61BB69FB607B69BB607A
:1028E0000023002B03D0F86830F07AF904E0BA68CE
:1028F000F968386900F031F800BF00BF2037BD46E5
:1029000080BD80B582B000AF7860786800F010F8C4
:10291000034618460837BD4680BD80B483B000AF7B
:1029200078607B6818460C37BD465DF8047B7047BD
:1029300080B483B000AF78607B6818460C37BD4622
:102940005DF8047B704780B483B000AF786000BF4F
:102950000C37BD465DF8047B704780B584B000AF8E
:10296000F860B9607A607A6813469B0013449B0054
:102970001946B86830F036F91037BD4680BD000002
:1029800080B500AF0248FFF7F4FD00BF80BD00BF77
:102990002803002080B582B000AF78607B681846BD
:1029A000FFF7E4FE7B6818460837BD4680BD00008F
:1029B00080B500AF0248FFF7EDFF00BF80BD00BF4C
:1029C0002803002080B500AFFFF7DAFF80BD80B597
:1029D00000AFFFF7EDFF80BD80B582B000AF12E021
:1029E000204800F045F80346002B02D01D4800F0B7
:1029F00052F81D4B1B685B6ADBB2FB71FB1D19466D
:102A0000184800F060F8184B1B68DB6903F02003DE
:102A1000202B0CBF01230023DBB2002BE0D107E009
:102A2000124800F038F803461A460F4B1B689A62AA
:102A30000D4B1B68DB6903F08003802B0AD10B4828
:102A400000F05BF8034683F00103DBB2002B01D0FA
:102A5000012300E00023002BE2D100BF00BF0837B4
:102A6000BD4680BD40030020E00E00204807002046
:102A700080B582B000AF7860786800F051F8034606
:102A800040F2FF3293420CBF01230023DBB2184611
:102A90000837BD4680BD80B485B000AF78607B68E4
:102AA0001B687A6813441B7AFB737B681B680133CD
:102AB000C3F309027B681A60FB7B18461437BD46D6
:102AC0005DF8047B704780B483B000AF78603960F4
:102AD0003B6819787B685B687A6813440A461A7207
:102AE0007B685B680133C3F309027B685A6000BFEF
:102AF0000C37BD465DF8047B704780B483B000AFEF
:102B000078607B681A687B685B689A420CBF012317
:102B10000023DBB218460C37BD465DF8047B7047D6
:102B200080B483B000AF78607B685A687B681B68AC
:102B3000D31AC3F3090318460C37BD465DF8047B6E
:102B40007047000080B500AF2E4B2F4A1A602D4B06
:102B500000229A602B4B0022DA602A4B00221A7462
:102B6000284B00225A74274B00229A74254B0A22C4
:102B70005A61244B01229A61224B1222DA61214BC5
:102B800006221A621F4B0A225A621E4B01229A62C7
:102B90001C4B1222DA621B4B06221A63194B0022CD
:102BA0005A63184B00229A63164B0C22DA63154BBA
:102BB00000221A64134B04225A64124B00229A64B6
:102BC000104B0422DA640F4B0C221A650D4B0422C1
:102BD0005A650C4B00229A650A4B0022DA65094BB4
:102BE00020221A66074B00225A66064B04229A6678
:102BF000044801F077FE0346002B01D000F00AFFE5
:102C000000BF80BD500B002000A4004080B58AB0FA
:102C100000AF786007F1140300221A605A609A60CE
:102C2000DA601A617B681B681A4A93422ED11A4BEC
:102C3000D3F8EC30184A43F48073C2F8EC30164BEA
:102C4000D3F8EC3003F480733B613B69124BD3F84B
:102C5000E030114A43F00203C2F8E0300E4BD3F8E3
:102C6000E03003F00203FB60FB684FF440537B61EC
:102C70000223BB610023FB6100233B6209237B62CB
:102C800007F114031946054802F0DCFC00BF2837A1
:102C9000BD4680BD00A40040004402580004025814
:102CA00080B588B000AF3B1D00221A605A609A6060
:102CB000DA601A615A619A61214B224A1A60204BEC
:102CC00000225A601E4B00229A601D4B0422DA60DB
:102CD0001B4B10221A611A4B40225A61184B4FF4B9
:102CE000C0729A61164B0022DA61154B4FF40062F4
:102CF0001A62134B4FF480525A62114B00229A62AF
:102D000002237B600E23BB600823FB600C233B6126
:102D100003237B610323BB610323FB613B1D194636
:102D2000074806F04DF90346002B01D000F072FE73
:102D30004FF0807001F06AFC00BF2037BD4680BDB7
:102D4000F00B00204041005280B586B000AF3B1D23
:102D500000221A605A609A60DA601A613C4B1B6864
:102D6000002B70D13A4B01221A603A4BD3F8D43081
:102D7000384A43F48053C2F8D430364BD3F8D430B9
:102D800003F480533B603B684FF63F037B600223B4
:102D9000BB600023FB6003233B610C237B613B1D75
:102DA00019462D4802F04EFC0C237B600223BB60C9
:102DB0000023FB6003233B610C237B613B1D194611
:102DC000264802F03FFC80237B600223BB60002387
:102DD000FB6003233B610C237B613B1D19462048AC
:102DE00002F030FC48F233137B600223BB60002307
:102DF000FB6003233B610C237B613B1D1946194893
:102E000002F020FC4FF683737B600223BB6000233B
:102E1000FB6003233B610C237B613B1D1946124879
:102E200002F010FC4CF203737B600223BB600023B2
:102E3000FB6003233B610C237B613B1D19460B4860
:102E400002F000FC00E000BF1837BD4680BD00BFA7
:102E5000240C0020004402580014025800080258B4
:102E6000000002580018025800100258000C0258C6
:102E700080B582B000AF7860FFF766FF00BF08370B
:102E8000BD4680BD80B58EB000AF07F1240300229F
:102E90001A605A609A60DA601A61854BD3F8E030A4
:102EA000834A43F01003C2F8E030814BD3F8E0309E
:102EB00003F010033B623B6A7D4BD3F8E0307C4A61
:102EC00043F00403C2F8E030794BD3F8E03003F06C
:102ED0000403FB61FB69764BD3F8E030744A43F09E
:102EE0002003C2F8E030724BD3F8E03003F0200347
:102EF000BB61BB696E4BD3F8E0306D4A43F0800391
:102F0000C2F8E0306A4BD3F8E03003F080037B6115
:102F10007B69674BD3F8E030654A43F00103C2F8A0
:102F2000E030634BD3F8E03003F001033B613B69D1
:102F30005F4BD3F8E0305E4A43F00203C2F8E03062
:102F40005B4BD3F8E03003F00203FB60FB68584BA7
:102F5000D3F8E030564A43F04003C2F8E030544B17
:102F6000D3F8E03003F04003BB60BB68504BD3F8AC
:102F7000E0304F4A43F00803C2F8E0304C4BD3F83E
:102F8000E03003F008037B607B6800224FF480513F
:102F9000484802F029FD00224FF48041464802F0E3
:102FA00023FD0C237B620323BB620023FB6207F13A
:102FB00024031946414802F045FB4FF232337B624D
:102FC0000323BB620023FB6207F1240319463C483C
:102FD00002F038FB4FF470737B620323BB62002363
:102FE000FB6207F124031946364802F02BFB40F23E
:102FF00001137B620323BB620023FB6207F12403FE
:1030000019462C4802F01EFB04237B620323BB629B
:103010000023FB6207F1240319462B4802F012FB40
:1030200042F6B4037B620323BB620023FB6207F119
:1030300024031946254802F005FB4FF403737B6215
:103040000323BB620023FB6207F1240319461A48DD
:1030500002F0F8FA4FF480537B620123BB62002335
:10306000FB6200233B6307F124031946114802F079
:10307000E9FA4FF480437B620123BB620023FB62C9
:1030800000233B6307F1240319460B4802F0DAFAE8
:1030900010237B620023BB620023FB6207F1240341
:1030A0001946094802F0CEFA00BF3837BD4680BD48
:1030B000004402580000025800180258001002583C
:1030C000000802580014025800040258000C02586C
:1030D00080B500AF214B224A1A60204B214A5A602A
:1030E0001E4B00229A601D4B0222DA601B4B01220C
:1030F0001A611A4B00225A61184B00229A61174B31
:103100000022DA61154B00221A62144B00225A6227
:10311000124B00229A62114B0022DA620F4B48F2E6
:10312000F4021A630D4805F0E5FF0346002B01D0B9
:1031300000F070FC094806F0DDF80346002B01D0D2
:1031400000F068FC0021054806F08CF80346002BCF
:1031500001D000F05FFC00BF80BD00BF280C002044
:10316000001C0058744C400080B5BAB000AF7860C5
:1031700007F1D40300221A605A609A60DA601A617B
:1031800007F11003C0220021184630F05EFB7B6877
:103190001B68264A934245D14FF010024FF00003BE
:1031A000C7E904230023C7F8A83007F11003184625
:1031B00004F0DAF80346002B01D000F02BFC1C4B86
:1031C000D3F8E0301A4A43F00203C2F8E030184B5B
:1031D000D3F8E03003F00203FB60FB68E023C7F89C
:1031E000D4301223C7F8D8300023C7F8DC300023CE
:1031F000C7F8E0300623C7F8E43007F1D4031946D6
:103200000C4802F01FFA0A4BD3F8F430084A43F096
:103210008003C2F8F430064BD3F8F43003F0800397
:10322000BB60BB6800BFE837BD4680BD001C0058CE
:10323000004402580004025880B58EB000AF3B1D18
:1032400034220021184630F000FB394B394A1A600D
:10325000374B00225A60364B00229A60344B4FF0B5
:103260000052DA60324B00221A61314B01225A615E
:103270002F4B01229A612E4B4422DA612C4B1222F1
:103280001A622B4B4FF4C2725A62294B4FF481726F
:103290009A62274B4FF4CC72DA62254B4FF483725B
:1032A0001A63234B002283F83420214B002283F839
:1032B00035201F4B002283F836201D4802F0C7FB43
:1032C0000346002B01D000F0A5FB00237B604FF4E8
:1032D000A073BB600023FB60F0233B6102237B6192
:1032E000FF23BB610023FB614FF480633B62052336
:1032F0007B620023BB624FF4A073FB62F0233B634D
:10330000002387F83430002387F83530002387F80E
:1033100036303B1D00221946054802F0EDFC0346FD
:10332000002B01D000F076FB00BF3837BD4680BDD2
:10333000780C00200010005080B590B000AF78608D
:1033400007F12C0300221A605A609A60DA601A6151
:103350007B681B68964A934240F02581954BD3F8D1
:10336000E430944A43F00803C2F8E430914BD3F8B8
:10337000E43003F00803BB62BB6A8E4BD3F8E03045
:103380008C4A43F01003C2F8E0308A4BD3F8E030A7
:1033900003F010037B627B6A864BD3F8E030854AEA
:1033A00043F02003C2F8E030824BD3F8E03003F062
:1033B00020033B623B6A7F4BD3F8E0307D4A43F009
:1033C0000403C2F8E0307B4BD3F8E03003F0040391
:1033D000FB61FB69774BD3F8E030764A43F0010399
:1033E000C2F8E030734BD3F8E03003F00103BB6167
:1033F000BB69704BD3F8E0306E4A43F00203C2F869
:10340000E0306C4BD3F8E03003F002037B617B6962
:10341000684BD3F8E030674A43F04003C2F8E0302D
:10342000644BD3F8E03003F040033B613B69614BF0
:10343000D3F8E0305F4A43F00803C2F8E0305D4B58
:10344000D3F8E03003F00803FB60FB687023FB62F5
:1034500002233B6300237B630323BB630E23FB63D5
:1034600007F12C031946544802F0ECF84FF480633E
:10347000FB6202233B6300237B630323BB630E23B6
:10348000FB6307F12C0319464C4802F0DBF8C1231B
:10349000FB6202233B6300237B630323BB630E2396
:1034A000FB6307F12C031946454802F0CBF87E2355
:1034B000FB6202233B6300237B630323BB630E2376
:1034C000FB6307F12C0319463E4802F0BBF80323C7
:1034D000FB6202233B6300237B630323BB6309235B
:1034E000FB6307F12C031946374802F0ABF84FF4A1
:1034F0007063FB6202233B6300237B630323BB6394
:103500000E23FB6307F12C0319462F4802F09AF8AB
:103510004FF46353FB6202233B6300237B6303236B
:10352000BB630E23FB6307F12C031946274802F007
:1035300089F84FF48063FB6202233B6300237B63C3
:103540000323BB630C23FB6307F12C0319461D48BF
:1035500002F078F84823FB6202233B6300237B637D
:103560000323BB630E23FB6307F12C0319461848A2
:1035700002F068F84FF48063FB6202233B63002390
:103580007B630323BB630923FB6307F12C03194609
:103590000E4802F057F800220021582001F002F9ED
:1035A000582001F019F900BF4037BD4680BD00BF6B
:1035B0000010005000440258001002580014025835
:1035C000000802580000025800040258001802586F
:1035D000000C025880B584B000AF00F069F94B4B85
:1035E0005B6903F40033002B1BD1BFF34F8F00BF87
:1035F000BFF36F8F00BF454B0022C3F85022BFF3CB
:103600004F8F00BFBFF36F8F00BF404B5B693F4AD6
:1036100043F400335361BFF34F8F00BFBFF36F8F8D
:1036200000E000BF394B5B6903F48033002B38D1D5
:10363000364B0022C3F88420BFF34F8F00BF334BBB
:10364000D3F88030FB60FB685B0BC3F30E03BB60F9
:10365000FB68DB08C3F309037B60BB685A0143F6D0
:10366000E07313407A68920728491343C1F8603227
:103670007B685A1E7A60002BEFD1BB685A1EBA6075
:10368000002BE5D1BFF34F8F00BF204B5B691F4A72
:1036900043F480335361BFF34F8F00BFBFF36F8F8D
:1036A00000E000BF00F026FF00F03AF800F0B4F8A8
:1036B000FFF7E8FBFFF7C0FDFFF7F2FA00F058FE56
:1036C000FFF706FDFFF73EFA00F0AAF900F03EFC16
:1036D00000F090FC00F0E8FC01224FF480510C480F
:1036E00002F082F90B48FDF7B5F90B4B01221A7075
:1036F000FDF72AFC72B600BF4FF48041074802F084
:103700008CF9642000F052FF00BFF5E700ED00E007
:1037100000000258F00B0020200D00200018025875
:1037200080B59CB000AF07F124034C22002118465D
:1037300030F08BF83B1D20220021184630F085F830
:10374000022002F0AFFD00233B60314B9B69304A01
:1037500043F4404393612E4B9B6903F440433B6029
:103760002C4BDB6A2B4A43F00103D362294BDB6A03
:1037700003F001033B603B6800BF254B9B6903F4EA
:103780000053B3F5005FF8D101237B624FF480331F
:10379000BB620223BB640223FB6408233B654FF436
:1037A000F0737B650223BB650223FB6502233B6646
:1037B00004237B660023BB660023FB6607F124031A
:1037C000184602F0A9FD0346002B01D000F022F9B3
:1037D0003F237B600323BB600023FB6008233B6126
:1037E00040237B614023BB614FF48063FB61402336
:1037F0003B623B1D0421184603F0E8F90346002B09
:1038000001D000F007F900BF7037BD4680BD00BF92
:10381000004802580004005880B5B0B000AF3B46E5
:10382000C0220021184630F010F81FA3D3E900236E
:10383000C7E900230823BB60C823FB6004233B6166
:1038400004237B610223BB614023FB6100233B62B5
:1038500000237B620823BB626423FB6202233B6379
:1038600002237B631423BB634FF48063FB63002359
:103870003B6400237B640223BB644FF400533B662C
:103880004FF000533B670123BB673B46184603F0EC
:103890006BFD0346002B01D000F0BCF800BFC03721
:1038A000BD4680BDAFF30080029000210000000003
:1038B00080B584B000AF3B4600221A605A609A601F
:1038C000DA6000F097FF01233B7000237B70002338
:1038D0007B600F233B7200237B720023BB720123AA
:1038E000FB7200233B7300237B730023BB73002315
:1038F000FB733B46184600F0B5FF01237B704FF089
:1039000000637B6014233B720523FB720123BB73AE
:103910000123FB733B46184600F0A4FF02237B7093
:103920004FF000537B6010233B720123FB72012395
:103930003B733B46184600F095FF03237B704FF026
:1039400010537B6012233B723B46184600F08AFFFF
:1039500004237B704FF040537B603B46184600F0D9
:1039600081FF05237B704FF060537B600F233B7218
:1039700000237B723B46184600F074FF06237B70E1
:103980004FF080437B601C233B7200237B7200233B
:10399000BB730023FB733B46184600F063FF07230D
:1039A0007B704FF0C0437B6016233B720123BB73D7
:1039B0000123FB733B46184600F054FF08237B703D
:1039C00013233B7201237B733B46184600F04AFFEA
:1039D000022000F027FF00BF1037BD4680BD000069
:1039E00080B582B000AF78607B681B68074A93425D
:1039F00001D100F0BBFD064B1B78DBB2002B01D0E0
:103A0000FDF7FCFC00BF0837BD4680BD0048014003
:103A1000200D002080B400AF72B600BF00BFFDE7EC
:103A200080B500AF274B284A1A60264B4FF480021E
:103A30005A60244B4FF4C0229A60224B0322DA6072
:103A4000204B00221A611F4B00225A611D4B4FF080
:103A500000529A611B4B0022DA611A4B00221A6253
:103A6000184B00225A62174B00229A62154B002213
:103A7000DA62144B4FF080425A63124B00229A6371
:103A8000104B0022DA630F4B00221A640D4B002208
:103A90005A640C4B00229A640A4B0022DA64094BE8
:103AA00000221A65074B00225A65064B00229A65D0
:103AB000044805F073FC0346002B01D0FFF7AAFF72
:103AC00000BF80BD240D00200038004080B58AB0C2
:103AD00000AF786007F1140300221A605A609A6000
:103AE000DA601A617B681B682A4A93424ED12A4BDE
:103AF000D3F8E830284A43F48043C2F8E830264B34
:103B0000D3F8E83003F480433B613B69224BD3F8A0
:103B1000E030214A43F00203C2F8E0301E4BD3F8F4
:103B2000E03003F00203FB60FB681B4BD3F8E0308E
:103B3000194A43F00103C2F8E030174BD3F8E030E4
:103B400003F00103BB60BB684FF400437B610223B9
:103B5000BB610023FB6100233B6205237B6207F10D
:103B6000140319460D4801F06DFD4FF420637B618D
:103B70000223BB610023FB6100233B6205237B62C0
:103B800007F114031946064801F05CFD00BF283711
:103B9000BD4680BD00380040004402580004025871
:103BA0000000025880B584B000AF07F1080300227E
:103BB0001A605A600E4BD3F8F4300D4A43F00203FA
:103BC000C2F8F4300A4BD3F8F43003F002037B6000
:103BD0007B680023BB600023FB6007F108031846E5
:103BE00002F0D6FA02F04EFB00BF1037BD4680BD92
:103BF0000044025880B58EB000AF78607B680F2B10
:103C000044D800227968762000F0CCFD762000F0C0
:103C1000E3FD244A7B681360234BD3F8F030224A3B
:103C200043F48023C2F8F0301F4BD3F8F03003F494
:103C30008023BB60BB6807F10C0207F1100311463B
:103C4000184603F04FFB03F037FB03465B007B6332
:103C50007B6B164AA2FB03239B0C013B3B63144B7B
:103C6000144A1A60124B40F2E732DA60104A3B6B9A
:103C700053600F4B00221A610D4B00229A600C48D2
:103C800005F0CBFC0346002B07D101E0012305E042
:103C9000074805F023FD034600E0012318463837A6
:103CA000BD4680BD780000200044025883DE1B43DF
:103CB000AC0D00200048014080B400AF00BFFDE71C
:103CC00080B400AF00BFFDE780B400AF00BFFDE7E8
:103CD00080B400AF00BFFDE780B400AF00BFFDE7D8
:103CE00080B400AF00BFBD465DF8047B704780B470
:103CF00000AF00BFBD465DF8047B704780B400AFE5
:103D000000BFBD465DF8047B704780B400AF00BFC4
:103D1000BD465DF8047B704780B500AF024801F0F6
:103D200033FF00BF80BD00BF780C002080B500AF1E
:103D3000024805F0E5FF00BF80BD00BFAC0D0020CC
:103D400080B400AF01231846BD465DF8047B704780
:103D500080B582B000AF786039602FF0D3FD0346A4
:103D600016221A604FF0FF3318460837BD4680BD53
:103D700080B582B000AF78604FF0FF317868FFF710
:103D8000E7FF00BFFDE7000080B586B000AF7860B8
:103D9000144A154BD31A7B617B693B61134B1B683B
:103DA000002B02D1114B124A1A60104B1A687B6823
:103DB00013443A699A4207D22FF0A4FD03460C221D
:103DC0001A604FF0FF3309E0084B1B68FB60074B9C
:103DD0001A687B681344054A1360FB681846183755
:103DE000BD4680BD0000022000040000F80D002048
:103DF0001815002080B400AF434BD3F88830424AF6
:103E000043F47003C2F88830404B1B6803F00F0383
:103E1000062B07D83D4B1B6823F00F033B4A43F0AA
:103E2000070313603A4B1B68394A43F001031360E0
:103E3000374B00221A61364B1A683549354B13400F
:103E40000B60324B1B6803F00803002B07D02F4B8D
:103E50001B6823F00F032D4A43F0070313602C4B1C
:103E600000229A612A4B0022DA61294B00221A6251
:103E7000274B294A9A62264B284ADA62244B284A61
:103E80001A63234B00225A63214B254A9A63204B25
:103E90000022DA631E4B224A1A641D4B00225A6428
:103EA0001B4B1B681A4A23F480231360184B002213
:103EB0001A661C4B1A681C4B1340B3F1005F02D208
:103EC0001A4B01221A60124BD3F8D43003F48053FA
:103ED000002B13D10E4BD3F8D4300D4A43F480534A
:103EE000C2F8D430124B43F2D2021A60084BD3F816
:103EF000D430074A23F48053C2F8D43000BFBD4603
:103F00005DF8047B704700BF00ED00E00020005228
:103F1000004402587FEDF6EA000202020000FF01B1
:103F2000800201010010005C0000FFFF08810051C9
:103F300000400052044BDA6842F00202DA605A682C
:103F40009204FCD5704700BF0048025880B58CB081
:103F500000AF07F10C032422002118462FF075FC56
:103F60003B4600221A605A609A60214B4FF0804213
:103F70001A601F4B00225A601D4B00229A601C4B96
:103F80004FF0FF32DA601A4B00221A61184B002200
:103F90009A610123FB6000233B6101237B610023C5
:103FA000BB610023FB6100233B6201237B62002392
:103FB000BB620023FB6207F10C0319460C4805F0B5
:103FC0006BFD0346002B01D0FFF724FD00233B606F
:103FD0000023BB603B461946054806F077FC0346C4
:103FE000002B01D0FFF716FD00BF3037BD4680BD66
:103FF000FC0D002080B58AB000AF07F11C03002241
:104000001A605A609A603B4600221A605A609A60B1
:10401000DA601A615A619A61214B224A1A60204B78
:1040200013225A601E4B00229A601D4BFF22DA6059
:104030001B4B00221A611A4B00229A61184805F0A6
:10404000C5FB0346002B01D0FFF7E4FC0023FB6116
:1040500000237B6207F11C031946114806F036FC69
:104060000346002B01D0FFF7D5FC60233B6064239F
:104070007B600023BB6000233B613B460022194666
:10408000074805F045FF0346002B01D0FFF7C2FCAF
:10409000034800F007F900BF2837BD4680BD00BFC8
:1040A000480E00200008004080B58AB000AF07F13C
:1040B0001C0300221A605A609A603B4600221A6074
:1040C0005A609A60DA601A615A619A61214B224AF9
:1040D0001A60204B13225A601E4B00229A601D4B1F
:1040E000FF22DA601B4B00221A611A4B00229A61F0
:1040F000184805F06BFB0346002B01D0FFF78AFC44
:104100000023FB6100237B6207F11C031946114861
:1041100006F0DCFB0346002B01D0FFF77BFC60239D
:104120003B6064237B600023BB6000233B613B4614
:1041300000221946074805F0EBFE0346002B01D08C
:10414000FFF768FC034800F0ADF800BF2837BD4614
:1041500080BD00BF940E00200018004080B58AB0DA
:1041600000AF786007F1140300221A605A609A6069
:10417000DA601A617B681B68B3F1804F4DD1294B1F
:10418000D3F8E830274A43F00103C2F8E830254B62
:10419000D3F8E83003F001033B613B69214BD3F8CE
:1041A000E030204A43F00103C2F8E0301D4BD3F861
:1041B000E03003F00103FB60FB681A4BD3F8E030FA
:1041C000184A43F00203C2F8E030164BD3F8E0304F
:1041D00003F00203BB60BB684FF400437B61022322
:1041E000BB610023FB6100233B6201237B6207F17B
:1041F000140319460C4801F025FA08237B610223B9
:10420000BB610023FB6100233B6201237B6207F15A
:1042100014031946054801F015FA00BF2837BD46BA
:1042200080BD00BF0044025800000258000402583C
:1042300080B485B000AF78607B681B68164A9342F3
:104240000FD1164BD3F8E830144A43F00403C2F8F8
:10425000E830124BD3F8E83003F00403FB60FB684E
:1042600013E07B681B680E4A93420ED10B4BD3F8C8
:10427000E8300A4A43F04003C2F8E830074BD3F86D
:10428000E83003F04003BB60BB6800BF1437BD4695
:104290005DF8047B704700BF0008004000440258EE
:1042A0000018004080B58AB000AF786007F11403B1
:1042B00000221A605A609A60DA601A617B681B6893
:1042C000264A934220D1264BD3F8E030244A43F0CB
:1042D0000803C2F8E030224BD3F8E03003F00803C3
:1042E0003B613B694FF480537B610223BB61002338
:1042F000FB6100233B6202237B6207F11403194632
:10430000184801F09FF924E07B681B68164A934225
:104310001FD1134BD3F8E030114A43F00203C2F827
:10432000E0300F4BD3F8E03003F00203FB60FB6892
:104330004FF480437B610223BB610023FB610023B8
:104340003B6202237B6207F114031946074801F020
:1043500079F900BF2837BD4680BD00BF0008004086
:1043600000440258000C0258001800400004025893
:1043700080B500AF224B234A1A60214B4FF4E13243
:104380005A601F4B00229A601D4B0022DA601C4BC2
:1043900000221A611A4B0C225A61194B00229A61B1
:1043A000174B0022DA61164B00221A62144B0022CE
:1043B0005A62134B00229A62114806F033FB0346FF
:1043C000002B01D0FFF726FB00210D4807F03BFB37
:1043D0000346002B01D0FFF71DFB0021084807F022
:1043E00070FB0346002B01D0FFF714FB044807F0D5
:1043F000F1FA0346002B01D0FFF70CFB00BF80BD94
:10440000E00E0020004C004080B58AB000AF78601C
:1044100007F1140300221A605A609A60DA601A6188
:104420007B681B681A4A93422ED11A4BD3F8E830A6
:10443000184A43F40023C2F8E830164BD3F8E830AA
:1044400003F400233B613B69124BD3F8E030114A7F
:1044500043F00403C2F8E0300E4BD3F8E03003F031
:104460000403FB60FB684FF440637B610223BB6184
:104470000023FB6100233B6208237B6207F11403E6
:104480001946054801F0DEF800BF2837BD4680BD5B
:10449000004C00400044025800080258DFF838D0B1
:1044A000FFF748FDFFF7A6FC0C480D490D4A002315
:1044B00002E0D458C4500433C4188C42F9D30A4AD9
:1044C0000A4C002301E013600432A242FBD32FF018
:1044D0001FFAFFF77FF8704700000220000000205D
:1044E000EC000020746D0308EC000020181500207B
:1044F000FEE7000080B582B000AF032000F047F96E
:1045000002F01AFD0246154B9B691B0A03F00F03CC
:104510001349CB5C03F01F0322FA03F37B600F4BBC
:104520009B6903F00F030E4AD35C03F01F037A6804
:1045300022FA03F30B4A13600B4A7B6813600F20C7
:10454000FFF758FB0346002B01D0012302E0FFF7E1
:1045500029FB002318460837BD4680BD0044025899
:1045600050430308740000207000002080B400AFA6
:10457000064B1B781A46064B1B681344044A13600B
:1045800000BFBD465DF8047B704700BF7C00002083
:10459000740F002080B400AF034B1B681846BD4663
:1045A0005DF8047B704700BF740F002080B584B0B5
:1045B00000AF7860FFF7EEFFB8607B68FB60FB68D8
:1045C000B3F1FF3F05D00A4B1B781A46FB68134432
:1045D000FB6000BFFFF7DEFF0246BB68D31AFA6834
:1045E0009A42F7D800BF00BF1037BD4680BD00BF5C
:1045F0007C00002080B400AF034B1B681B0C1846E6
:10460000BD465DF8047B70470010005C80B483B049
:1046100000AF7860064B1B6823F0407204497B684A
:1046200013430B6000BF0C37BD465DF8047B704739
:104630000040005280B485B000AF78607B6803F022
:104640000703FB600B4BDB68BB60BA684FF6FF03E8
:104650001340BB60FB681A02BB681A43064B134346
:10466000BB60044ABB68D36000BF1437BD465DF829
:10467000047B704700ED00E00000FA0580B400AF55
:10468000044BDB681B0A03F007031846BD465DF8C0
:10469000047B704700ED00E080B483B000AF0346B8
:1046A000FB80B7F90630002B0BDBFB8803F01F0201
:1046B0000749B7F906305B09012000FA02F241F818
:1046C000232000BF0C37BD465DF8047B704700BF58
:1046D00000E100E080B483B000AF03463960FB80A6
:1046E000B7F90630002B0ADB3B68DAB20C49B7F9A0
:1046F00006301201D2B20B4483F800230AE03B6873
:10470000DAB20849FB8803F00F03043B1201D2B26E
:104710000B441A7600BF0C37BD465DF8047B70472A
:1047200000E100E000ED00E080B489B000AFF86087
:10473000B9607A60FB6803F00703FB61FB69C3F1B2
:104740000703042B28BF0423BB61FB690433062B3A
:1047500002D9FB69033B00E000237B614FF0FF328D
:10476000BB6902FA03F3DA43BB681A407B699A40DB
:104770004FF0FF317B6901FA03F3D9437B680B40AB
:10478000134318462437BD465DF8047B704780B557
:1047900082B000AF78607868FFF74CFF00BF083741
:1047A000BD4680BD80B586B000AF0346B9607A6073
:1047B000FB81FFF763FF78617A68B9687869FFF772
:1047C000B3FF0246B7F90E3011461846FFF782FFD5
:1047D00000BF1837BD4680BD80B582B000AF03462C
:1047E000FB80B7F906301846FFF756FF00BF0837C1
:1047F000BD4680BD80B400AFBFF35F8F00BF074BE5
:104800005B6A064A23F480335362054B00225A60E8
:1048100000BFBD465DF8047B704700BF00ED00E0BF
:1048200090ED00E080B483B000AF78600B4A7B6805
:1048300043F0010353600A4B5B6A094A43F4803337
:104840005362BFF34F8F00BFBFF36F8F00BF00BF36
:104850000C37BD465DF8047B704700BF90ED00E06B
:1048600000ED00E080B483B000AF78607B685A78D8
:104870001B4B9A601A4B1B69194A23F00103136101
:10488000174A7B685B68D3607B681B7B1A077B6871
:10489000DB7A1B061A437B689B7ADB041A437B682E
:1048A0005B7B9B041A437B689B7B5B041A437B689E
:1048B000DB7B1B041A437B685B7A1B021A437B6811
:1048C0001B7A5B0013437A6812781146044A0B4343
:1048D000136100BF0C37BD465DF8047B704700BF15
:1048E00090ED00E080B598B000AF7860844A07F1A1
:1048F0000C0311464C2218462FF038F87B68002B29
:1049000001D10123C6E17B681B687E4A934206D130
:104910007B681B6803F580731A467B685A607B6866
:1049200093F89830DBB2002B06D17B68002283F825
:1049300099207868FEF76AF97B681B689A697B683A
:104940001B6822F010029A61FFF724FEF86514E05C
:10495000FFF720FE0246FB6DD31A0A2B0DD97B68A8
:10496000D3F89C3043F001027B68C3F89C207B683D
:10497000032283F8982001238CE17B681B689B69E4
:1049800003F00803082BE3D07B681B689A697B68F7
:104990001B6842F001029A61FFF7FCFDF86514E024
:1049A000FFF7F8FD0246FB6DD31A0A2B0DD97B6881
:1049B000D3F89C3043F001027B68C3F89C207B68ED
:1049C000032283F89820012364E17B681B689B69BC
:1049D00003F00103002BE3D07B681B689A697B68B6
:1049E0001B6842F002029A617B681B7C012B08D194
:1049F0007B681B689A697B681B6822F040029A6199
:104A000007E07B681B689A697B681B6842F040027C
:104A10009A617B685B7C012B08D17B681B689A6973
:104A20007B681B6842F480429A6107E07B681B68E0
:104A30009A697B681B6822F480429A617B689B7C40
:104A4000012B08D17B681B689A697B681B6822F47C
:104A500080529A6107E07B681B689A697B681B68D3
:104A600042F480529A617B681B689B6923F4407111
:104A70007B689A687B681B680A439A617B681B683D
:104A80009A697B681B6822F0A4029A617B681B68A4
:104A90001A697B681B6822F010021A617B68DB6868
:104AA000012B08D17B681B689A697B681B6842F000
:104AB00004029A6130E07B68DB68002B2CD07B68B5
:104AC000DB68022B20D07B681B689A697B681B68B7
:104AD00042F080029A617B681B681A697B681B68D8
:104AE00042F010021A617B68DB68032B14D17B68EB
:104AF0001B689A697B681B6842F020029A610BE090
:104B00007840030800A000407B681B689A697B68B6
:104B10001B6842F020029A617B689B69013B5A0640
:104B20007B68DB69013B1B021A437B681B6A013B04
:104B300042EA03017B685B69013B1A047B681B68DE
:104B40000A43DA617B689B68B3F5407F15D17B68C7
:104B50009B6A5A1E7B68DB6A013B1B021A437B6817
:104B60001B6B013B1B0142EA03017B685B6A013B53
:104B70001A047B681B680A43DA607B681B6E002B93
:104B80000AD07B681B68D3F8C0107B685A6E7B68BC
:104B90001B680A43C3F8C0207B68DA6D7B681B6E14
:104BA0001344002B11D07B681B68D3F8C83023F066
:104BB00007017B689B6E9B0060333B4453F8542C89
:104BC0007B681B680A43C3F8C8207B681B6C002BFA
:104BD00011D07B681B68D3F8BC3023F007017B68D9
:104BE0005B6C9B0060333B4453F8542C7B681B6820
:104BF0000A43C3F8BC207B689B6C002B12D07B68F7
:104C00001B68D3F8BC3023F070017B68DB6C9B0021
:104C100060333B4453F8543C1A017B681B680A43D9
:104C2000C3F8BC207B681B6D002B12D07B681B680F
:104C3000D3F8BC3023F4E0617B685B6D9B0060338C
:104C40003B4453F8543C1A027B681B680A43C3F880
:104C5000BC207B681B68114A934207D17B685B6864
:104C60009A687B685B6822F003029A607B68002286
:104C7000C3F894207B680022C3F89C207B68012243
:104C800083F89820786800F0D9FA034687F85B30FB
:104C900097F85B3018466037BD4680BD00A00040E5
:104CA00080B487B000AF786039607B6893F8983043
:104CB000FB73FB7B012B02D0FB7B022B57D13B68A4
:104CC0001B68002B2BD13B68DB68072B0DD13B68A1
:104CD0001B691A043B68DB691B021A433B689B692A
:104CE000134343F060537B610EE03B689B689A0777
:104CF0003B68DB68DB061A433B681B691B041A43ED
:104D00003B685B6913437B617B68DA6E3B685B6879
:104D10009B001344BB60BB687A691A6025E03B685E
:104D2000DB685A073B681B6913437B613B68DB68A0
:104D3000072B03D13B689B693B6106E03B689B689E
:104D40009A073B685B6913433B617B681A6F3B685A
:104D50005B68DB001344BB60BB687A691A60BB68A0
:104D60000433BB60BB683A691A60002308E07B68C3
:104D7000D3F89C3043F002027B68C3F89C200123E7
:104D800018461C37BD465DF8047B704780B483B07D
:104D900000AF78607B6893F89830DBB2012B11D1BB
:104DA0007B68022283F898207B681B689A697B687D
:104DB0001B6822F001029A617B680022C3F89C20E4
:104DC000002308E07B68D3F89C3043F004027B6842
:104DD000C3F89C20012318460C37BD465DF8047BC0
:104DE000704780B586B000AFF860B9607A60FB6844
:104DF00093F89830DBB2022B41D1FB681B68D3F8E3
:104E0000C03003F07C53002B09D1FB68D3F89C30F1
:104E100043F02002FB68C3F89C20012338E0FB68C4
:104E20001B68D3F8C43003F40013002B09D0FB68CF
:104E3000D3F89C3043F40072FB68C3F89C20012334
:104E400026E0FB681B68D3F8C4301B0C03F01F037B
:104E50007B617B697A68B968F86800F075FBFB686C
:104E60001B6801217A6901FA02F2C3F8D0200122FD
:104E70007B699A40FB68C3F89420002308E0FB6834
:104E8000D3F89C3043F00802FB68C3F89C20012350
:104E900018461837BD4680BD80B48BB000AFF860AF
:104EA000B9607A603B600023FB61FB6893F898303F
:104EB000FB76FB7E022B40F05781BB68402B53D121
:104EC000FB681B68D3F8A03003F4FE03002B09D164
:104ED000FB68D3F89C3043F02002FB68C3F89C20A9
:104EE00001234AE1FB681B68D3F8A43003F07F0379
:104EF000002B09D1FB68D3F89C3043F48072FB6827
:104F0000C3F89C20012338E1FB681B68D3F8A43068
:104F10001B0A03F03F03FB61FB681B68D3F8A43056
:104F200003F08073B3F1807F13D1FB681B68D3F863
:104F3000A03003F00043B3F1004F0AD1FB695A1CC3
:104F4000FB681B68D3F8A0301B0C134003F07F03F1
:104F5000FB61FB685A6FFB685B6CF96901FB03F34B
:104F60009B0013447B626FE0BB68412B53D1FB680D
:104F70001B68D3F8B03003F4FE03002B09D1FB68A3
:104F8000D3F89C3043F02002FB68C3F89C20012337
:104F9000F3E0FB681B68D3F8B43003F07F03002B09
:104FA00009D1FB68D3F89C3043F48072FB68C3F8E6
:104FB0009C200123E1E0FB681B68D3F8B4301B0A96
:104FC00003F03F03FB61FB681B68D3F8B43003F0C8
:104FD0008073B3F1807F13D1FB681B68D3F8B030C6
:104FE00003F00043B3F1004F0AD1FB695A1CFB6880
:104FF0001B68D3F8B0301B0C134003F07F03FB6138
:10500000FB689A6FFB68DB6CF96901FB03F39B009B
:1050100013447B6218E0FB681B6DBA689A4209D39F
:10502000FB68D3F89C3043F02002FB68C3F89C2057
:105030000123A2E0FB68DA6FFB685B6DB96801FBD6
:1050400003F39B0013447B627B6A1B6803F080427E
:105050007B685A607B685B68002B07D17B6A1B68A2
:105060009B0CC3F30A027B681A6005E07B6A1B682D
:1050700023F060427B681A607B6A1B6803F0005271
:105080007B689A607B6A1B6803F000427B681A6148
:105090007B6A04337B627B6A1B689AB27B68DA6145
:1050A0007B6A1B681B0C03F00F027B68DA607B6A6B
:1050B0001B6803F480127B685A617B6A1B6803F4E7
:1050C00000127B689A617B6A1B681B0E03F07F02EB
:1050D0007B681A627B6A1B68DA0F7B685A627B6A9C
:1050E00004337B627B6A7B6100233B620AE07A695E
:1050F0003B6A1A4439683B6A0B4412781A703B6A5F
:1051000001333B627B68DB681F4AD35C1A463B6A0B
:105110009342ECD3BB68402B05D1FB681B68FA694E
:10512000C3F8A8201EE0BB68412B05D1FB681B68B3
:10513000FA69C3F8B82015E0BB681F2B08D8FB68D4
:105140001B680121BA6801FA02F2C3F8982009E04D
:10515000BB6803F01F02FB681B68012101FA02F221
:10516000C3F89C20002308E0FB68D3F89C3043F090
:105170000802FB68C3F89C20012318462C37BD4663
:105180005DF8047B704700BF6043030880B485B0BE
:1051900000AF786039607B681B68D3F89830FB609B
:1051A0007B681B68D3F89C30BB603B681F2B07D81B
:1051B000FA683B6822FA03F303F00103002B0CD0DA
:1051C0003B681F2B0BD93B6803F01F03BA6822FA18
:1051D00003F303F00103002B01D1002316E03B6829
:1051E0001F2B08D87B681B6801213A6801FA02F27C
:1051F000C3F8982009E03B6803F01F027B681B6836
:10520000012101FA02F2C3F89C2001231846143749
:10521000BD465DF8047B704780B485B000AF786010
:105220007B681B68D3F8C43003F03F03FB60FB6866
:1052300018461437BD465DF8047B704780B485B0CE
:1052400000AF78607B685B6BBB607B681B68D3F8E2
:105250008420A74B1340BA6891007A6812680B4308
:10526000C2F884307B681B68D3F8843023F47F0154
:105270007B689B6B1A047B681B680A43C3F8842015
:105280007B689B6BBA681344BB607B681B68D3F870
:105290008820974B1340BA6891007A6812680B43D4
:1052A000C2F888307B681B68D3F8883023F4FE018D
:1052B0007B68DB6B1A047B681B680A43C3F8882091
:1052C0007B68DB6B5B00BA681344BB607B681B6860
:1052D000D3F8A020864B1340BA6891007A68126810
:1052E0000B43C2F8A0307B681B68D3F8A03023F4CE
:1052F000FE017B681B6C1A047B681B680A43C3F8B9
:10530000A0207B681B6C7A68526C02FB03F3BA68BE
:105310001344BB607B681B68D3F8B020744B134008
:10532000BA6891007A6812680B43C2F8B0307B68A3
:105330001B68D3F8B03023F4FE017B689B6C1A0421
:105340007B681B680A43C3F8B0207B689B6C7A6853
:10535000D26C02FB03F3BA681344BB607B681B6822
:10536000D3F8AC20624B1340BA6891007A68126897
:105370000B43C2F8AC307B681B6D7A68526D02FB40
:1053800003F3BA681344BB607B681B68D3F8F02052
:10539000574B1340BA6891007A6812680B43C2F801
:1053A000F0307B681B68D3F8F03023F47C117B6805
:1053B0009B6D1A047B681B680A43C3F8F0207B6866
:1053C0009B6D5B00BA681344BB607B681B68D3F8B5
:1053D000C020474B1340BA6891007A6812680B43AB
:1053E000C2F8C0307B681B68D3F8C03023F47C114E
:1053F0007B68DB6D1A047B681B680A43C3F8C02016
:105400007B681B68D3F8C03023F07C517B681B6E2F
:105410001A067B681B680A43C3F8C0207B685A6B76
:10542000344B13449A007B68DA667B68DA6E7B68DB
:105430009B6B9B001A447B681A677B681A6F7B68BA
:10544000DB6BDB001A447B685A677B685A6F7B68AA
:105450001B6C7968496C01FB03F39B001A447B6861
:105460009A677B689A6F7B689B6C7968C96C01FB53
:1054700003F39B001A447B68DA677B68DA6F7B680A
:105480001B6D7968496D01FB03F39B001A447B682F
:10549000C3F880207B68D3F880207B689B6DDB009D
:1054A0001A447B68C3F884207B68D3F884207B6827
:1054B000DB6D7968896E01FB03F39B001A447B68FE
:1054C000C3F888207B68D3F888207B681B6E7968D6
:1054D000896E01FB03F39B001A447B68C3F890209C
:1054E0007B68D3F89030044A934215D906E000BF98
:1054F0000300FFFF002B0010FCD300407B68D3F8B3
:105500009C3043F020027B68C3F89C207B68032218
:1055100083F89820012310E07B68DB6EFB6005E0D8
:10552000FB6800221A60FB680433FB607B68D3F8D9
:105530009030FA689A42F3D3002318461437BD46D8
:105540005DF8047B704700BF80B489B000AFF8609D
:10555000B9607A603B60BB685B68002B0AD1BB68AE
:105560001A69BB689B681A43BB681B689B0413439A
:10557000FB610AE0BB681A69BB689B681A43BB6899
:105580001B68134343F08043FB61BB681B6A1A0628
:10559000BB68DB691A43BB689B691A43BB685B69DC
:1055A0001A43BB68DB681B0413433B61FB68D3F8F9
:1055B0008420FB689B6E396801FB03F39B00134456
:1055C000BB61BB69FA691A60BB690433BB61BB6923
:1055D0003A691A60BB690433BB6100237B6120E038
:1055E0007B6903337A6813441B781A067B6902339C
:1055F00079680B441B781B041A437B690133796873
:105600000B441B781B02134379687A690A441278A9
:105610001A43BB691A60BB690433BB617B690433FD
:105620007B61BB68DB68064AD35C1A467B699342A0
:10563000D6D300BF00BF2437BD465DF8047B70475A
:105640006043030880B489B000AF786039600023FC
:10565000FB618E4B7B619EE13B681A680121FB690F
:1056600001FA03F313403B613B69002B00F090818A
:105670003B685B6803F00303012B05D03B685B6864
:1056800003F00303022B30D17B689B68BB61FB698D
:105690005B00032202FA03F3DB43BA691340BB61E8
:1056A0003B68DA68FB695B0002FA03F3BA691343EB
:1056B000BB617B68BA699A607B685B68BB610122E9
:1056C000FB6902FA03F3DB43BA691340BB613B6831
:1056D0005B681B0903F00102FB6902FA03F3BA6974
:1056E0001343BB617B68BA695A603B685B6803F02F
:1056F0000303032B09D13B685B6803F00303032B0F
:105700001BD13B689B68012B17D07B68DB68BB61B2
:10571000FB695B00032202FA03F3DB43BA6913401F
:10572000BB613B689A68FB695B0002FA03F3BA69E4
:105730001343BB617B68BA69DA603B685B6803F05E
:105740000303022B23D1FB69DA087B68083253F884
:105750002230BB61FB6903F007039B000F2202FAB2
:1057600003F3DB43BA691340BB613B681A69FB6909
:1057700003F007039B0002FA03F3BA691343BB610A
:10578000FB69DA087B680832B96943F822107B6844
:105790001B68BB61FB695B00032202FA03F3DB4376
:1057A000BA691340BB613B685B6803F00302FB69A5
:1057B0005B0002FA03F3BA691343BB617B68BA6901
:1057C0001A603B685B6803F44033002B00F0E08014
:1057D0002F4BD3F8F4302E4A43F00203C2F8F430D2
:1057E0002B4BD3F8F43003F00203FB60FB68294A2B
:1057F000FB699B08023352F82330BB61FB6903F05D
:1058000003039B000F2202FA03F3DB43BA69134040
:10581000BB617B68204A934252D07B681F4A934207
:1058200031D07B681E4A93422BD07B681D4A93423D
:1058300025D07B681C4A93421FD07B681B4A934249
:1058400019D07B681A4A934213D07B68194A934255
:105850000DD07B68184A934207D07B68174A934261
:1058600001D109232DE00A232BE0082329E0072397
:1058700027E0062325E0052323E0042321E003237A
:105880001FE002231DE001231BE000BF8000005841
:105890000044025800040058000002580004025856
:1058A00000080258000C0258001002580014025858
:1058B00000180258001C0258002002580024025808
:1058C0000023FA6902F0030292009340BA6913437D
:1058D000BB613849FB699B080233BA6941F8232050
:1058E0004FF0B0431B68BB613B69DB43BA691340AF
:1058F000BB613B685B6803F48013002B03D0BA697B
:105900003B691343BB614FF0B042BB6913604FF07A
:10591000B0435B68BB613B69DB43BA691340BB6161
:105920003B685B6803F40013002B03D0BA693B6942
:105930001343BB614FF0B042BB6953607B695B6846
:10594000BB613B69DB43BA691340BB613B685B6881
:1059500003F40033002B03D0BA693B691343BB61E6
:105960007B69BA695A607B691B68BB613B69DB4331
:10597000BA691340BB613B685B6803F48033002B5A
:1059800003D0BA693B691343BB617B69BA691A608A
:10599000FB690133FB613B681A68FB6922FA03F378
:1059A000002B7FF459AE00BF00BF2437BD465DF821
:1059B000047B70470004005880B485B000AF786065
:1059C0000B467B807B681A697B881340002B02D0D2
:1059D0000123FB7301E00023FB73FB7B18461437A4
:1059E000BD465DF8047B704780B483B000AF78603B
:1059F0000B467B8013467B707B78002B03D07A8824
:105A00007B689A6103E07B881A047B689A6100BF17
:105A10000C37BD465DF8047B704780B485B000AF9D
:105A200078600B467B807B685B69FB607A88FB68EB
:105A300013401A04FB68D9437B880B401A437B68E8
:105A40009A6100BF1437BD465DF8047B704780B58E
:105A500084B000AF78607B68002B01D101238FE018
:105A60007B6893F8A130DBB2002B06D17B68002263
:105A700083F8A0207868FDF75FFC7B68022283F83A
:105A8000A1207B681B689A697B681B6822F07042C2
:105A90009A617B681B6899697B685A687B689B6818
:105AA0001A437B68DB681A437B681B691A437B686F
:105AB0001B680A439A617B685B691B04FB607B6817
:105AC00099697B681B68FA680A439A607B68DB699E
:105AD0001B04FB607B68196A7B681B68FA680A43D1
